:100000000C9471010C948E010C948E010C94A3300D
:100010000C94902C0C948E010C948E010C948E01F7
:100020000C948E010C948E010C948E010C94D32CA4
:100030000C948E010C948E010C948E010C948E0104
:100040000C94C02C0C948E010C94D92F0C94793004
:100050000C948E010C948E010C948E010C948E01E4
:100060000C948E010C948E01084AD73B3BCE016E56
:1000700084BCBFFDC12F3D6C74319ABD56833DDAFF
:100080003D00C77F11BED9E4BB4C3E916BAAAABE0E
:10009000000000803F05A84CCDB2D44EB93836A937
:1000A000020C50B9918688083CA6AAAA2ABE000074
:1000B00000803F000D0A4772626C20312E316820AB
:1000C000636F737479636E63205B27242720666FE8
:1000D000722068656C705D0D0A00244E005B4F5005
:1000E000543A005B5645523A312E316820636F73A3
:1000F0007479636E632E32303139303833303A00E0
:100100005B544C4F3A005B4739323A00333000328F
:1001100038005B4700204700204D00205300204658
:100120000020540033382E005B47433A47005B48B9
:100130004C503A24242024232024472024492024DE
:100140004E2024783D76616C20244E783D6C696E9B
:100150006520244A3D6C696E652024534C50202450
:1001600043202458202448207E2021203F206374EF
:10017000726C2D785D0D0A00414C41524D3A007C65
:10018000413A007C4F763A007C57434F3A007C500E
:100190006E3A007C46533A007C42663A007C5750E7
:1001A0006F733A007C4D506F733A00536C65657005
:1001B00000446F6F723A00436865636B00416C6185
:1001C000726D00486F6D65004A6F6700486F6C6420
:1001D0003A0052756E0049646C65000D0A005B5070
:1001E00052423A006572726F723A0000007A430020
:1001F000007A4300007A430000FA430000FA43000B
:1002000000FA4300A00C4700A00C4700A00C4700D8
:100210000048C3000048C3000048C30A0000190199
:100220000AD7233C6F12033B00007A440000000011
:1002300000000000C8410000FA43FA000000803FBF
:100240006F6B0D0A00536C656570696E67005265CF
:1002500073746F72696E67207370696E646C650089
:10026000526573746F72696E672064656661756C40
:1002700074730050676D20456E6400436865636B5E
:10028000204C696D69747300436865636B20446F2B
:100290006F720044697361626C656400456E6162EF
:1002A0006C65640043617574696F6E3A20556E6CBD
:1002B0006F636B656400272448277C272458272018
:1002C000746F20756E6C6F636B005265736574207C
:1002D000746F20636F6E74696E7565005B4D534774
:1002E0003A0011241FBECFEFD8E0DEBFCDBF11E032
:1002F000A0E0B1E0E4E2F6E702C005900D92A43080
:10030000B107D9F727E0A4E0B1E001C01D92A536FE
:10031000B207E1F70E94D2300C94103B0C9400001D
:100320008F929F92AF92BF92CF92DF92EF92FF9205
:100330000F931F93CF93DF937C016B01DC01EC9152
:10034000F0E0EB5EF84F8081EF018D3229F52296C7
:10035000818101E0912CF0E010E020E030E0A90183
:100360005E01E0EDE80FEA3018F5FF5FF930E0F4E8
:1003700091101150A5E0B0E00E94E93A9B01AC0158
:10038000220F331F441F551F2E0F311D411D511DBC
:100390002196D5018C91E4CF8B3219F0219600E0A3
:1003A000D9CF22968181FBCF9110F2CF1F5FF0CF82
:1003B000EE3F29F4911003C099249394E9CFFF23D1
:1003C000F9F0CA01B9010E94E8374B015C0120E055
:1003D00030E0A9010E94363781112BC0002309F4B7
:1003E00045C0B7FAB094B7F8B094F6018082918214
:1003F000A282B382C551D740C150F701C083F1E05A
:100400008F2FDF91CF911F910F91FF90EF90DF9091
:10041000CF90BF90AF909F908F9008952AE037EDD6
:1004200043E25CE3C501B4010E9498394B015C01D1
:100430001E5F1F3F9CF31F3F59F42DEC3CEC4CEC2E
:100440005DE3C501B4010E9498394B015C01C6CF40
:10045000112321F220E030E040E251E4C501B40173
:100460000E9498394B015C011150F2CFD6018D9258
:100470009D92AD92BC921397BDCF2FB7F8949091F7
:100480001A06892B80931A062FBF08952FB7F89468
:1004900090911906892B809319062FBF08959FB755
:1004A000F894809318069FBF08959FB7F894209101
:1004B000170680958223809317069FBF08952FB754
:1004C000F89490911706892B809317062FBF0895F3
:1004D000AF92BF92CF92DF92EF92FF920F931F9352
:1004E000CF93DF93EC010AE616E05C018CE0A80EE6
:1004F000B11CC990D990E990F99020E030E0A901B1
:10050000C701B6010E9458391816DCF0F801219194
:100510003191419151918F01C701B6010E94363747
:1005200087FD0FC0CA15DB0521F780E0DF91CF9171
:100530001F910F91FF90EF90DF90CF90BF90AF9001
:10054000089581E0F3CF8F929F92AF92BF92CF92A6
:10055000DF92EF92FF920F931F93CF93DF93EB0104
:1005600026E4E22E26E0F22E8C016B018CE0C80E10
:10057000D11C6991799189919991F701819091901C
:10058000A190B1907F010E94EA37A50194010E94D9
:100590004037F80161937193819391938F01CC154A
:1005A000DD0539F7DF91CF911F910F91FF90EF900B
:1005B000DF90CF90BF90AF909F908F900895CF9392
:1005C000DF93C0911506D09116062097C9F080914F
:1005D000E60581608093E6056091FC057091FD055C
:1005E0008091FE059091FF059B01AC010E94983916
:1005F0006A8B7B8B8C8B9D8B109216061092150646
:10060000DF91CF9108952091770630E040917806F0
:1006100050E090E080E060E070E0E82FD901082E23
:1006200002C0B595A7950A94E2F7A0FD71E0DA0142
:1006300002C0B595A795EA95E2F7A0FD61E00196A5
:100640008330910551F7709313026093140208955B
:1006500080918B0682FF13C0289A809113028093A9
:100660002402809176068250990B880F81958093A1
:10067000230280916F00826080936F000895289814
:10068000ECCF8093B300811106C08091B0008F77CA
:100690008093B00008958091B0008068F9CFCF9327
:1006A000DF93239AC0EBD0E083E0888384E08093DB
:1006B000B100259A209187063091880640918906DD
:1006C00050918A0660918306709184068091850618
:1006D000909186060E9440369B01AC0160E070E07C
:1006E0008EE793E40E94403760930F0270931002EC
:1006F000809311029093120288818F778883DF9113
:10070000CF910895E091210191E09E0F993609F46F
:1007100090E020918B01291761F0F0E0EE5DFE4F33
:100720008083909321018091C10080628093C100F9
:1007300004C02091170624FFECCF0895CF93DF93D8
:10074000C5E1D7E08991811103C0DF91CF91089570
:100750000E948203F7CF10921B0690918B0697FDA3
:1007600003C092E090931B06882331F080911B0612
:1007700092E0892780931B0608958F929F92AF92F3
:10078000BF92CF92DF92EF92FF920F931F93CF937E
:10079000DF93CDB7DEB72D970FB6F894DEBF0FBE4F
:1007A000CDBF6B017C01042F20E030E0A9010E9445
:1007B000363787FF07C08DE20E948203F7FAF09474
:1007C000F7F8F094102F123008F054C000FF0AC060
:1007D00020E030E040E251E4C701B6010E949839C0
:1007E0006B017C0120E030E040E05FE3C701B6012F
:1007F0000E9441360E94B23710E03AE0832E912CDD
:10080000A12CB12CE12FF0E0611571058105910556
:10081000E9F581E090E08C0F9D1FE80FF91F80E360
:10082000101708F445C0101309C0E1E0F0E0EC0F28
:10083000FD1FE10FF11D80E380831F5FEE24E39431
:10084000F12CEC0EFD1EE10EF11C111134C02D96A1
:100850000FB6F894DEBF0FBECDBFDF91CF911F91D1
:100860000F91FF90EF90DF90CF90BF90AF909F904F
:100870008F90089520E030E048EC52E4C701B601C3
:100880000E9498396B017C0112509DCFEE24E394B5
:10089000F12CEC0EFD1EEE0EFF1EA50194010E9430
:1008A000C13A605DF7016083B901CA011F5FAACF39
:1008B0001F5F8193B5CF101303C08EE20E948203A5
:1008C000F70182917F010E9482031150BECF2091D7
:1008D0008B0640E020FF07C02BE832E441E25DE3F5
:1008E0000E94983941E00C94BD0320918B0643E0AF
:1008F00020FF07C02BE832E441E25DE30E94983913
:1009000044E00C94BD030F931F93CF938C01C0E080
:10091000F80161917191819191918F010E9475040B
:10092000C23019F08CE20E948203CF5FC33081F79E
:10093000CF911F910F910895CF93DF93843658F094
:100940006AE00E94A13AC0E3C90F6AE00E94A13A9E
:10095000D0E3D90F04C0C0E0D0E08A30B0F7805DAA
:100960000E948203DD2319F08D2F0E948203CC2385
:1009700029F08C2FDF91CF910C948203DF91CF91DE
:100980000895CF93DF93EC01FE01849121968111AC
:1009900003C0DF91CF9108950E948203F5CF8BEDC4
:1009A00091E00C94C104CF93C82F84EE91E00E9493
:1009B000C1048C2F0E949C04CF910C94CF04811110
:1009C00004C080E492E00C94C1040C94D304CF9250
:1009D000DF92EF92FF92CF93DF93D82F6A017B01D2
:1009E000C22F84E20E9482038D2F0E949C048DE31B
:1009F0000E9482034C2FC701B6010E94BD03DF9104
:100A0000CF91FF90EF90DF90CF900C94CF04CF93D5
:100A1000DF93D82FC62F84E20E9482038D2F0E947D
:100A20009C048DE30E9482038C2F0E949C04DF9122
:100A3000CF910C94CF04EF92FF920F931F93CF931B
:100A4000DF936091760670E080E00E940705609178
:100A5000790670E081E00E9407056091770670E0FA
:100A600082E00E9407056091780670E083E00E94B2
:100A7000070560918B0662FB662760F970E084E0F1
:100A80000E94070560918B0666FB662760F970E09F
:100A900085E00E94070580918B06082E000C990BBB
:100AA000692F661F6627661F70E086E00E940705B3
:100AB00060917A0670E08AE00E94070540917B060B
:100AC00050917C0660917D0670917E0623E08BE05C
:100AD0000E94E70440917F06509180066091810654
:100AE0007091820623E08CE00E94E70460918B06FF
:100AF000617070E08DE00E94070560918B0665FBD8
:100B0000662760F970E084E10E94070560918B061A
:100B100063FB662760F970E085E10E94070560913C
:100B20008B066295617070E086E10E940705609116
:100B30008C0670E087E10E94070540918D06509178
:100B40008E0660918F067091900623E088E10E94E6
:100B5000E70440919106509192066091930670913E
:100B6000940623E089E10E94E70460919506709164
:100B700096068AE10E9407054091970650919806D3
:100B80006091990670919A0623E08BE10E94E70438
:100B90004091830650918406609185067091860687
:100BA00020E08EE10E94E70440918706509188067C
:100BB0006091890670918A0620E08FE10E94E70427
:100BC00060918B066695617070E080E20E94070577
:100BD00084E6F82E10E0C6E4D6E000E0E02EEF0C4C
:100BE000123011F1133069F11130C9F04881598187
:100BF0006A817B8123E08E2D0E94E7040F5F24969B
:100C0000033061F78AE0F80E1F5F8CE8F812E3CF3B
:100C1000DF91CF911F910F91FF90EF9008954C8538
:100C20005D856E857F85E6CF20E030E041E655E4C6
:100C3000688D798D8A8D9B8D0E944037AB01BC01F8
:100C4000D9CF4CA15DA16EA17FA17058D3CF8DE506
:100C50000E9482030C94CF04CF93DF93CDB7DEB70D
:100C60002C970FB6F894DEBF0FBECDBF8EED91E08E
:100C70000E94C10468E276E0CE0101960E94A302C0
:100C8000CE0101960E9483048AE30E948203809130
:100C90003A060E949C040E9427062C960FB6F894F0
:100CA000DEBF0FBECDBFDF91CF910895E5E0F1E04B
:100CB000ACE1B6E04D915D916D917C9113974083CD
:100CC00051836283738314964D915D916D917C91F4
:100CD0001797448355836683778318968D919D91EA
:100CE0000D90BC91A02D80879187A287B38708952E
:100CF000BF92CF92DF92EF92FF920F931F93CF9309
:100D0000DF937C01FC0102A513A5D4A5C5A58189AB
:100D100080FF33C060913D0670E090E080E00E946B
:100D2000EA372AE037ED43E25CE30E9498399B0101
:100D3000AC01B8018D2F9C2F0E9498398B01D82FC0
:100D4000C92F20E030E040E85FE3B8018D2F9C2FF1
:100D50000E945839181624F000E010E0D0E8CFE3E4
:100D6000B8018D2F9C2FDF91CF911F910F91FF9094
:100D7000EF90DF90CF90BF90089582FD17C06091F3
:100D80003C0670E090E080E00E94EA372AE037ED10
:100D900043E25CE30E9498399B01AC01B8018D2FBE
:100DA0009C2F0E9498398B01D82FC92FF701B6A02C
:100DB000C7A0D0A4F1A498014D2F5C2F6B2D7C2DE2
:100DC0008D2D9F2D0E94363787FFBBCF0B2D1C2DFD
:100DD000DD2DCF2DB6CF80913A0290915B0598170B
:100DE00039F022E3829FC0011124855C9D4F089554
:100DF00090E080E008950E94EB06892B19F082E0D4
:100E00000C945F0208952F923F924F925F926F92DF
:100E10007F928F929F92AF92BF92CF92DF92EF928A
:100E2000FF920F931F93CF93DF9300D000D0CDB7E5
:100E3000DEB700915B05002309F486C00983398180
:100E40003150398310913902131709F466C0C32E4B
:100E5000D12CE2E33E9FC00111249C01255C3D4F53
:100E60007901F90176888788908CA18C628D738DC9
:100E7000848D958D9B01AC010E944136F701268D32
:100E8000378D40A151A10E949839B62EE72EF82E39
:100E90009B83262F372F482F592F672D782D892D8B
:100EA0009A2D0E94363787FF03C0B72C7401AB829E
:100EB00082E38C9DF0018D9DF00D1124E55CFD4FCA
:100EC0008B2D9E2DAF2DBB81828B938BA48BB58BED
:100ED000F9818F2FF11101C080E1FF24FA94F80EFF
:100EE00030903A021F1133C0131102C00E94DF027A
:100EF000E2E31E9FC0011124855C9D4F9A83898384
:100F000033243394310EF0E13F1201C0312C82E3DF
:100F1000282E031185C0109339020F900F900F9067
:100F20000F90DF91CF911F910F91FF90EF90DF9085
:100F3000CF90BF90AF909F908F907F906F905F9079
:100F40004F903F902F90089520E1298378CF2981F9
:100F500082E3289F90011124255C3D4F3C832B8325
:100F600022E3E22E8F2C912CFE9CC0011124FC0167
:100F7000E55CFD4FFA83E983F11002C090E1F92EA0
:100F8000FA94F31002C00E94DF02E89CC001E99CC1
:100F9000900D11249C01255C3D4F6901F9014688A3
:100FA0005788608C718CA30192016289738984894E
:100FB00095890E943637882339F1F601628D738D49
:100FC000848D958D9B01AC010E944136F601268DE2
:100FD000378D40A151A10E949839EB81FC81228973
:100FE0003389448955890E9441364B015C01AC012B
:100FF0009B01C301B2010E945839F60118165CF436
:10100000828A938AA48AB58A29813A813C832B8378
:101010001F11A8CF6DCF428A538A648A758AF4CF94
:10102000C32CD12C329CC00111249C01255C3D4F66
:101030007901E981FA814288538864887588F901C9
:1010400082889388A488B588A5019401C301B20160
:101050000E94363787FF26C0E981FA81628D738D41
:10106000848D958D9B01AC010E944136E981FA8106
:10107000268D378D40A151A10E949839A30192017C
:101080000E9441362B013C01AC019B01C501B4011A
:101090000E945839181634F4F701428A538A648A38
:1010A000758A132D2C9CF0012D9CF00D1124E55C0C
:1010B000FD4F26893789408D518D628973898489D6
:1010C00095890E943637811101C0132D3394F0E1C8
:1010D0003F1201C0312CFA82E9821BCF6F927F92BE
:1010E0008F929F92AF92BF92CF92DF92EF92FF9238
:1010F0000F931F93CF93DF93EB018C015B018CE087
:10110000A80EB11C89E9682E96E7792E26E9822E71
:101110003EE7932EC990D990E990F99020E030E015
:10112000A901C701B6010E9436378823B9F0A7018B
:101130009601F80160817181828193810E9440371C
:101140006B017C01E894F7F89301A401C701B60193
:101150000E945839181614F0360147010C5F1F4FD2
:10116000CA15DB05B9F6B301C401DF91CF911F9118
:101170000F91FF90EF90DF90CF90BF90AF909F9036
:101180008F907F906F90089593B180918B0686FF2A
:101190000BC0967159F091FB882780F992FD82600F
:1011A000907129F0846008959095F3CF80E00895C0
:1011B000EBE6F0E08081897E8083E8E6F0E08081E4
:1011C0008E7F8083089584B1897E84B985B18661DC
:1011D00085B980918B0683FF0BC080916B0086617F
:1011E00080936B008091680081608093680008950F
:1011F0000C94D8086CE176E083EB96E00C94A302A3
:10120000F894F999FECF92BD81BD81E08FBB20B5E6
:10121000862F8227082E000C990B50E086239523F9
:10122000892B49F084E16F3F11F060BD84E08FBBF2
:10123000F99A789408952617E1F360BD84E2F7CF18
:101240009F92AF92BF92CF92DF92EF92FF920F9355
:101250001F93CF93DF935C018A017B01E40EF51E9F
:10126000EB01912C6C01C61AD70ACE018C0D9D1D85
:1012700021E0911007C0292D990C330B232F221F39
:101280002227221F6991962E920E0E940009CE15E8
:10129000DF0559F7692DC501800F911FDF91CF91AF
:1012A0001F910F91FF90EF90DF90CF90BF90AF9084
:1012B0009F900C9400096AE090E080E00E94000991
:1012C00045E550E066E476E081E090E00C9420098A
:1012D000F999FECF92BD81BD81E08FBB80B50895A5
:1012E0009F92AF92BF92CF92DF92EF92FF920F93B5
:1012F0001F93CF93DF935B018A017C01E40EF51EFF
:10130000EC01912C6B01C81AD90AC6018C0F9D1FE4
:101310000E94680921E0911007C0292D990C330B18
:10132000232F221F2227221F982E920E8993CE153B
:10133000DF0559F7C501800F911F0E94680921E060
:1013400030E0891511F030E020E0C901DF91CF9144
:101350001F910F91FF90EF90DF90CF90BF90AF90D3
:101360009F90089590913606911105C086FF04C0A4
:10137000299A1092400608952998FBCFE5E0F1E004
:101380008CE1DF011D928A95E9F710923A021092E2
:101390005B0581E0809304011092390208954F9219
:1013A0005F926F927F92AF92BF92CF92DF92EF9255
:1013B000FF920F931F93CF93DF93EC015C012CE01E
:1013C000A20EB11C8C01C12CD12C7601F8014190E8
:1013D0005190619071908F0120E030E0A901C3012C
:1013E000B2010E943637882371F0A3019201C30134
:1013F000B2010E9498399B01AC01C701B6010E945D
:1014000041366B017C010A151B0501F7C701B601C6
:101410000E94373A6B017C01AC019B0160E070E0F7
:1014200080E89FE30E9440372B013C01699179914C
:10143000899199915E01F4E0AF1AB108A30192017C
:101440000E949839F5016083718382839383C0176A
:10145000D10761F7C701B601DF91CF911F910F91BD
:10146000FF90EF90DF90CF90BF90AF907F906F9004
:101470005F904F9008954F925F926F927F928F92FC
:101480009F92AF92BF92CF92DF92EF92FF926B0149
:101490007C018090870690908806A0908906B09085
:1014A0008A0640908306509084066090850670906E
:1014B0008606A3019201C501B4010E94583987FF35
:1014C0001BC060913E0670E090E080E00E94EA3729
:1014D0002AE037ED43E25CE30E949839A7019601C8
:1014E0000E9498396B017C01AC019B01C301B201E0
:1014F0000E9436371816B4F04092420650924306C6
:1015000060924406709245068FEFFF90EF90DF9057
:10151000CF90BF90AF909F908F907F906F905F9093
:101520004F900895A7019601C501B4010E94583952
:1015300087FD1CC020E030E0A901C701B6010E9470
:101540003637811109C0109242061092430610925C
:10155000440610924506D9CF8092420690924306E7
:10156000A0924406B092450681E0CFCFC0924206D9
:10157000D0924306E0924406F0924506A5019401FC
:10158000C701B6010E94403620910F02309110022F
:1015900040911102509112020E9498390E94253800
:1015A00020E030E040E85FE30E9441360E94B93716
:1015B000862FABCF90913606911111C0811110C0CA
:1015C000109242061092430610924406109245066D
:1015D0008091B0008F778093B000109240060895FC
:1015E000803189F42D9890918B0691FF05C080324F
:1015F00019F440E050E0BA01CB01BA010E943B0A65
:101600000E944103EACF2D9AEECF2F923F924F9244
:101610005F926F927F928F929F92AF92BF92CF9282
:10162000DF92EF92FF920F931F93CF93DF93CDB78B
:10163000DEB7EB970FB6F894DEBF0FBECDBF80913B
:10164000390680FD53C290915C0580915D05981725
:1016500009F44CC28091150690911606892B09F069
:101660007EC01091390612FF5AC280915B0522E3B9
:10167000829FC0011124855C9D4F90931606809334
:10168000150640911506509116065A874987452B35
:1016900009F42CC20091E60500FF44C21092E60551
:1016A0001092F8051092F9051092FA051092FB05B8
:1016B000A985BA855A962D913D914D915C915D9782
:1016C00029833A834B835C8360E070E080E09FE392
:1016D0000E9440376D837E838F839887E985FA85E2
:1016E000468C578C60A071A082889388A488B588A6
:1016F00011FF05C3F2E0F093F705A50194010E94E4
:1017000098399B01AC01C301B2010E9440366B01C4
:101710007C0120E030E0A9010E94363787FFDEC25D
:1017200029813A814B815C81CA01B9010E9441360D
:10173000A30192010E9498399B01AC01C501B4013B
:101740000E9440360E94373A609304067093050663
:1017500080930606909307061860109339068091CF
:101760008805A82FB0E0BA8BA98B27E02A9FF0014B
:101770002B9FF00D1124E25AFA4F8091E5058483E6
:1017800040911506509116065A874987DA015E96F0
:10179000BC91BDA3FA01F78DFEA3DA019096BC912E
:1017A000BFA3FA01F1A1F8A72091F3053091F40548
:1017B0004091F5055091F6056DA17EA18B2F9F2FCD
:1017C0000E94403669AB7AAB8BAB9CAB20E030E03B
:1017D000A9010E94363787FF04C019AA1AAA1BAABA
:1017E0001CAA209100062D8B309101063E8B409162
:1017F00002064F8B50910306588F809108068D8FFB
:10180000909109069E8FA0910A06AF8FB0910B06AA
:10181000B8A3E0910C06E9A7F0910D06FAA7209174
:101820000E062BA730910F063CA77090FC05609028
:10183000FD054091FE054BAF5091FF055AAF8091D9
:10184000F7058D879091F8059DA7A091F905AEA7A2
:10185000B091FA05BFA7E091FB05E8ABF091040653
:10186000FEAB209105062FAB3091060638AF4091B4
:10187000070649AF29A53AA54BA55CA56D8D7E8DC0
:101880008F8D98A10E9436378111C8C352E05DAB9D
:101890009DA1998FAEA1AA8FBFA1BB8FE8A5EC8FA8
:1018A0008EE3C82E83ECD82E8EE2E82E89E3F82E44
:1018B000212C312C2101A701960129A33AA34BA386
:1018C0005CA35D85513009F44AC4A985BA855130BD
:1018D00008F4D6C3533009F078C45A962D913D913F
:1018E0004D915C915D97C701B6010E9498394B01FB
:1018F0005C012D893E894F89588D672D762D8BADE2
:101900009AAD0E9440369B01AC01C501B4010E9412
:10191000583987FD8DC32D8D3E8D4F8D58A16DA1FA
:101920007EA18FA198A50E9440369B01AC010E9428
:1019300041366B017C012D893E894F89588D672D79
:10194000762D8BAD9AAD0E9441369B01AC01C7014B
:10195000B6010E9440376B017C017D886E88BF898B
:10196000BBAFE88DEAAF0D8D1E8DFF8DF98328A1E9
:101970002D8331E03D87A7019601C201B1010E948C
:1019800041361B012C0129A13AA14BA15CA10E9467
:10199000363787FF87C4A201910169A17AA18BA183
:1019A0009CA10E9440366B017C01980149815D81B8
:1019B0006DA57EA58FA598A90E94363787FD31C3F6
:1019C000872D962DABADBAAD8093FC059093FD05A8
:1019D000A093FE05B093FF053D853093F705E09198
:1019E0008905F0918A058189811104C09091390699
:1019F00093FF31C0A985BA8551969C9151979073F8
:101A000009F47CC49E96CD90DD90ED90FC90D1972A
:101A10008823B1F0209110063091110640911206F2
:101A200050911306672D762D8BAD9AAD0E94983993
:101A30009B01AC01C701B6010E9498396B017C0182
:101A4000C701B6010E943B0A8093140680913906B3
:101A5000877F8093390627E0E989FA892E9FC001A4
:101A60002F9F900D1124AC01425A5A4F3A01809198
:101A70001406DA0116968C932091EF053091F0054B
:101A80004091F1055091F205B80189819D810E9434
:101A9000983969877A878B879C870E941F376B01EB
:101AA0007C016091EB057091EC058091ED059091C2
:101AB000EE050E941F374B015C01A70196010E94B1
:101AC00040360E94B9376D877E878F87988B2D852A
:101AD0003E85F30131832083232B09F01AC48091C2
:101AE000390681FF16C4816080933906EB960FB6E4
:101AF000F894DEBF0FBECDBFDF91CF911F910F9144
:101B0000FF90EF90DF90CF90BF90AF909F908F901D
:101B10007F906F905F904F903F902F9008950E941C
:101B2000EB06ABCD8091E5058F5F853009F480E051
:101B30008093E505282F30E052E1859FC0011124F4
:101B4000DC01A557BA4F7D01B0938A05A0938905A2
:101B5000E985FA85808950968C9390E080E04191E8
:101B6000519161917191D701A80FB91F689412F832
:101B7000440F551F661F771F1694D1F74D935D9341
:101B80006D937C93139704968C30910541F7A9854A
:101B9000BA851C966D917D918D919C911F97B2E1B4
:101BA000B29FA001B39F500D1124FA01E557FA4FDF
:101BB0004B015C0123E0880C991CAA1CBB1C2A95D4
:101BC000D1F784869586A686B7860E94E83760930B
:101BD000EB057093EC058093ED059093EE05E98598
:101BE000FA85268D378D40A151A10E9440379B0177
:101BF000AC012093EF053093F0054093F10550932D
:101C0000F20560E070E080EA9FE30E944037609355
:101C1000F3057093F4058093F5059093F605109203
:101C2000E7051092E8051092E9051092EA0511FD0A
:101C300002C003FF42C060910406709105068091C6
:101C40000606909107066093FC057093FD0580934E
:101C5000FE059093FF059B01AC010E949839A98570
:101C6000BA8552966D937D938D939C935597077F7C
:101C70000093E605D70151961C9280918B0681FF57
:101C80000FCDE985FA85818985FF0ACD22A533A587
:101C900044A555A560E070E080E89FE30E944037CE
:101CA00060931006709311068093120690931306AA
:101CB000E1E0D7015196EC93F3CCE985FA8562898E
:101CC0007389848995890E94373A6093FC057093E3
:101CD000FD058093FE059093FF05CCCFC092F805DB
:101CE000D092F905E092FA05F092FB0510920406F5
:101CF0001092050610920606109207062DCD10923E
:101D0000F705409208065092090660920A06709202
:101D10000B0612FF6AC0109204061092050610927C
:101D2000060610920706C12CD12C760189859A856A
:101D30000E9478066D877E878F87988B9B01AC0108
:101D40000E94983969877A878B879C87A5019401BF
:101D50000E94363787FF93C029853A854B855C857D
:101D6000C501B4010E9440362D813E814F815885C6
:101D70000E9498399B01AC01C301B2010E94403618
:101D8000609308067093090680930A0690930B06E9
:101D900020E030E0A9010E94363718160CF449C043
:101DA00032E03093F70529813A814B815C81CA0189
:101DB000B9010E944136A30192010E9498399B010A
:101DC000AC01C501B4010E9440360E94373A6093CD
:101DD000040670930506809306069093070680918B
:101DE000E60588608093E605B7CCE0913A02EF5FA4
:101DF000E03109F4E0E080915B05C12CD12C760143
:101E00008E1751F022E32E9FF0011124E55CFD4F67
:101E1000C288D388E488F588C701B6010E94373AA2
:101E20006093040670930506809306069093070658
:101E30007DCFA701960169857A858B859C850E9457
:101E400040362D813E814F8158850E94983960939C
:101E50000C0670930D0680930E0690930F068D85E9
:101E60009E85AF85B8898093000690930106A09364
:101E70000206B093030693E09093F7056DCCA7019B
:101E80009601C501B4010E9440362D813E814F81EB
:101E900058850E949839A30192010E94413620E0A2
:101EA00030E040E05FE30E949839698B7A8B8B8B3E
:101EB0009C8B20E030E0A9010E94583918160CF0E4
:101EC00094C0A301920169897A898B899C890E94B7
:101ED000363787FF88C0A701960169857A858B858B
:101EE0009C850E9440362D813E814F8158850E94FD
:101EF00098399B01AC0120930C0630930D0640935A
:101F00000E0650930F0669897A898B899C890E94F5
:101F100058391816BCF52D853E854F855889209374
:101F20000006309301064093020650930306A50174
:101F3000940169857A858B859C850E94363781114D
:101F400004C031E03093F70507CCA5019401698501
:101F50007A858B859C850E9440362D813E814F81FC
:101F600058850E9498399B01AC01C301B2010E94BF
:101F70004036609308067093090680930A06909392
:101F80000B06EACB89899A89AB89BC8980930806BC
:101F900090930906A0930A06B0930B0680930C0653
:101FA00090930D06A0930E06B0930F0629813A81F7
:101FB0004B815C81CA01B9010E94413629893A8965
:101FC0004B895C890E949839A70196010E9441368D
:101FD0000E94373A609300067093010680930206D0
:101FE00090930306B9CB92E047CF8091040690917D
:101FF0000506A0910606B0910706109208061092F9
:10200000090610920A0610920B0680930006909320
:102010000106A0930206B09303069ECB81E08DAB30
:1020200037CC098F1A8F39813B8F4D814C8F49CC2A
:1020300020E030E040E05FE3C501B4010E94983940
:102040009B01AC01672D762D8BAD9AAD0E94403679
:10205000A70196010E9498399B01AC01698D7A8D88
:102060008B8D9C8D0E9440368B0189839D83A501B9
:102070009401672D762D8BAD9AAD0E9440366AC0D3
:102080005A962D913D914D915C915D97C701B60196
:102090000E9498394B015C0120E030E040E05FE3B2
:1020A0000E949839272D362D4BAD5AAD0E944136EE
:1020B000A70196010E9498399B01AC01698D7A8D28
:1020C0008B8D9C8D0E9440368B0189839D839B0163
:1020D000AC016D8D7E8D8F8D98A10E945839181698
:1020E0008CF52D8D3E8D4F8D58A16DA17EA18FA1B8
:1020F00098A50E9440369B01AC010E9441366B01BD
:102100007C012D893E894F89588D672D762D8BADA9
:102110009AAD0E9441369B01AC01C701B6010E94F5
:1021200040376B017C01BDA9BD877D886E88EF8932
:10213000EBAFF88DFAAF0D8D1E8D2F8D298338A151
:102140003D8319CCA5019401672D762D8BAD9AADF9
:102150000E944136762E672E8BAF9AAF0CCC2D891C
:102160003E894F89588DC701B6010E9498399B015D
:10217000AC01698D7A8D8B8D9C8D0E9440368B01D0
:1021800089839D8329A53AA54BA55CA50E94363776
:1021900087FFF1CB29A53AA54BA55CA5698D7A8D62
:1021A0008B8D9C8D0E9440362D893E894F89588D9C
:1021B0000E9440376B017C0109A51AA54BA54983F4
:1021C0005CA55D8382E08D87D6CB5A962D913D919B
:1021D0004D915C915D97C701B6010E9498394B0102
:1021E0005C01AC019B01672D762D8BAD9AAD0E94F1
:1021F0005839181644F520E030E040E05FE3C501AF
:10220000B4010E9498399B01AC01672D762D8BADEE
:102210009AAD0E944036A70196010E9498399B0111
:10222000AC01698D7A8D8B8D9C8D0E9440368B011F
:1022300089839D832DA53EA54FA558A90E94583995
:1022400018160CF414CF2DA53EA54FA558A9698DDD
:102250007A8D8B8D9C8D0E9440369B01AC010E9433
:1022600041366B017C012EA93FA948AD59AD672DC0
:10227000762D8BAD9AAD0E9441369B01AC01C70112
:10228000B6010E9440376B017C017EA86FA8B8ADF3
:10229000BBAFE9ADEAAF0DA51EA5FFA5F98328A93F
:1022A0002D8369CB29A93AA94BA95CA9B8018981D9
:1022B0009D810E94583918168CF42EE333EC4EE2BF
:1022C00059E369A17AA18BA19CA10E94413669A31F
:1022D0007AA38BA39CA3A201910163CB872D962D9A
:1022E000ABADBAAD8093FC059093FD05A093FE05C0
:1022F000B093FF054D854093F70571CB10924206D0
:10230000109243061092440610924506109214064D
:102310009DCB2091E7053091E8054091E90550916A
:10232000EA05C201B1010E9441362B013C01298519
:102330003A854B855C85C501B4010E9440369B01FE
:10234000AC01C301B2010E9440374B015C0120EC9B
:1023500031EE44E65EE40E9498390E941F370E94E5
:10236000B937603D57E075078105910508F066C0F3
:1023700027E0A989BA892A9FF0012B9FF00D11242B
:10238000E25AFA4F158227E0A989BA892A9FF001FB
:102390002B9FF00D1124E25AFA4F738362838091D0
:1023A0005D05809388058F5F863009F4A1C0809316
:1023B0005D05E0911506F0911606C801A981BD8161
:1023C000868F978FA0A3B1A3C092EB05D092EC05A6
:1023D000E092ED05F092EE0529853A854B855C8506
:1023E000C701B6010E944036A50194010E949839A8
:1023F0006093E7057093E8058093E9059093EA05FB
:102400002091F8053091F9054091FA055091FB05AE
:10241000B80189819D810E943637811114C9F090DD
:10242000390620E030E0A901B80189819D810E9430
:10243000583918160CF05FC08F2D55CB603A3FE02D
:10244000730781059105A0F5A7E049895A89A49FE2
:10245000F001A59FF00D1124E25AFA4FB1E0B583C7
:10246000A7E049895A89A49FF001A59FF00D112486
:10247000E25AFA4F2581022E04C0969587957795EA
:1024800067950A94D2F74D855E8502C0440F551FAB
:102490002A95E2F7518340836115710551E0850764
:1024A000910508F470CF4FEF5FEF5383428377CFEE
:1024B0006034EFE17E078105910568F447E02989E2
:1024C0003A89429FF001439FF00D1124E25AFA4FDE
:1024D00052E05583C5CF27E0A989BA892A9FF00128
:1024E0002B9FF00D1124E25AFA4F33E03583B8CF19
:1024F00010925D055ECFF2FC9FCF109216061092EF
:10250000150690913A0280915B05891709F49BC8E2
:1025100081E0890F803109F480E020913902921323
:1025200002C08093390280933A028DC880916F0077
:102530008D7F80936F0080918100887F8160809380
:1025400081001092150280917906909135068F3F97
:10255000B1F420911806211112C0903891F490E046
:10256000019788F41BB818B881E090918B0692FF10
:1025700002C091E08927882369F0289A0895943051
:1025800071F780E0F2CFEFE9FFE03197F1F700C09B
:102590000000E6CF28980895CF93DF930E9496120B
:1025A000E5EEF5E080E3DF011D928A95E9F7C6E1EB
:1025B000D2E083E2FE0111928A95E9F710921606A5
:1025C0001092150610925C051092880581E08093A8
:1025D0005D05109215020E940303809114028F87FB
:1025E00085B18E7F90911302892B85B985B18E7F3D
:1025F00090911402892B85B9DF91CF910895809134
:10260000170684FD1FC080E10E945F028091B00028
:102610008F778093B000299890913506892F8C721E
:1026200021F480913906867069F0943049F48091E4
:102630001806811103C086E00E944F020C94961286
:1026400083E0FACF08952F923F924F925F926F925C
:102650007F928F929F92AF92BF92CF92DF92EF9232
:10266000FF920F931F93CF93DF93CDB7DEB7A4975D
:102670000FB6F894DEBF0FBECDBF10911806112320
:1026800049F181E08093350688E791E00E94C1041A
:10269000812F0E949C040E94CF0485EF91E0019756
:1026A000E1F51150123088F48CED92E00E94C104E3
:1026B0008AEC92E00E94C1040E94270680E10E94F9
:1026C00055028091170684FFFCCF8FB7F8941092C3
:1026D00018068FBF10911706112309F4ACC214FF1E
:1026E00023C081E080933606A4960FB6F894DEBF2F
:1026F0000FBECDBFDF91CF911F910F91FF90EF9053
:10270000DF90CF90BF90AF909F908F907F906F9011
:102710005F904F903F902F900895EFE9FFE0319741
:10272000F1F700C00000BBCF10FFD0C08CE0ECE19F
:10273000F6E0DE01599601900D928A95E1F7BE010F
:10274000675E7F4FCE010D960E94A3028CE30E942C
:10275000820380913506883009F432C108F00DC13A
:10276000813009F436C108F426C1823009F434C13D
:10277000843009F42BC180917A06F82FF1709F2ED6
:1027800080FF3FC180914106882309F43AC184EA61
:1027900091E00E94C104CE010D960E9483048091B5
:1027A0007A0681FF1DC088E991E00E94C1049091E2
:1027B0005B0580913A02981708F472C1815F891B0A
:1027C0000E949C048CE20E94820380910D029091F1
:1027D0000E02981708F466C18058891B0E949C0459
:1027E00083E991E00E94C104809135068C7709F459
:1027F0005BC16091FC057091FD058091FE05909193
:10280000FF050E9467048CE20E94820360914206E9
:1028100070914306809144069091450640E00E94E5
:10282000BD030E94C408E82E83B18095082F027072
:1028300081FD07E083B18270F0901B06F8268E2D93
:102840008F29802B59F18EE891E00E94C104FF206E
:1028500019F080E50E948203EE2079F0E0FE03C0CB
:1028600088E50E948203E1FE03C089E50E9482039D
:10287000E2FE03C08AE50E948203002379F000FF94
:1028800003C082E50E94820301FF03C088E40E9426
:102890008203047019F083E50E948203809141064F
:1028A000882309F405C181508093410600914006B8
:1028B000002309F416C10150009340068EE30E94E4
:1028C00082030E94CF0481E00E945502812F887EFE
:1028D00009F461C180913506982F937009F04AC1BF
:1028E0008872A9F080913706807C89F40E94DF020B
:1028F00082E08093390680913506803241F480E28F
:1029000017FD0CC080913706806880933706809150
:102910003506811103C091E09093370616FF07C07A
:1029200085FD05C09091370690649093370613FF9C
:1029300005C0807E19F480E18093350615FF1AC129
:102940008CED92E00E94C10488E892E00E94C104EC
:102950000E9427068091370687FD07C190913506B2
:10296000903409F0FFC083FF04C0837E82608093AF
:10297000370680E480933506F8C0803221F198F460
:10298000803109F0F8CE8091370687FD1CC08CECB1
:1029900091E00E94C1048091370680FF2EC080E341
:1029A0000E948203E8CE8034D1F0803809F0E3CE73
:1029B0008BEA91E002C086ED91E00E94C104DBCE7B
:1029C00082ED91E0FACF88EC91E0F7CF83EC91E0D3
:1029D000F4CF8DEB91E0F1CF87EB91E0EECF81EB7F
:1029E00091E00E94C1048091370683FF02C083E317
:1029F000D7CF82FF04C085FFD2CF81E3D1CF82E35E
:102A0000CFCF4090D7065090D8066090D9067090EE
:102A1000DA066FEBA62E66E0B62E9E012F5F3F4FC3
:102A20006901CE010D967C0100E0F5016191719183
:102A3000819191915F0120853185428553850E9466
:102A40004136F60161937193819391936F01023046
:102A500041F4A30192010E94413669877A878B87EE
:102A60009C87911012C0F6013497208131814281F8
:102A70005381F70160817181828193810E94403688
:102A8000F70160837183828393830F5FF4E0EF0E1D
:102A9000F11C033051F691107ACE8DE991E079CE98
:102AA00081508DCE815099CE60E070E0CB01A9CEEF
:102AB000809135068C7799F08DE180934106809165
:102AC0004006811103C081E08093400688E891E0D0
:102AD0000E94C104CE0101960E948304E7CE89E0E2
:102AE000ECCF809135068C77C1F183E1809340066D
:102AF00083E891E00E94C10480913C060E949C04FE
:102B00008CE20E94820380913D060E949C048CE22C
:102B10000E94820380913E060E949C048091B00036
:102B2000F12C87FF04C02D9B1AC052E0F52E299B83
:102B3000CDC100E48FE791E00E94C104FF2031F095
:102B400021E083E5F21283E40E948203002309F46A
:102B5000B5CE86E40E948203B1CE89E0C7CFFF24C0
:102B6000F394E5CF903809F004CF80913706806266
:102B70008093370617FF0CC080913506813029F409
:102B80008091370685608093370680E8809335060C
:102B900088EE0E94550211FF28C0812F887611F51A
:102BA00080913506803441F48091370685FD04C05C
:102BB00084FFEAC01092350680913506882309F417
:102BC000E9C084FF0FC09091370690FF0BC08031A1
:102BD00009F0E0C080913F06882309F4DBC08860DB
:102BE00080933F0682E00E94550212FF24C090911C
:102BF000370680913506807D09F4E5C0809138065E
:102C00008111E1C097FDE1C00E94DF0280913A028C
:102C1000809339020E9403078091390681FF05C025
:102C200090913706916090933706897F809339069B
:102C300084E00E94550290911906992309F44CC032
:102C40008FB7F894109219068FBF40913C06842FDD
:102C500090FD84E691FD865F92FD8A5093FD8F5F23
:102C600094FD8150893C08F088EC8A3008F48AE0B1
:102C700030913D06232F95FD24E696FD22E397FD36
:102C800029E1481302C0231739F180933C062093B1
:102C90003D061092400670903A0260905B05172D39
:102CA00089E9282E96E7392E26E9422E3EE7532E53
:102CB00042E3842E1611A4C0C101D20180931D01EC
:102CC00090931E01A0931F01B09320010E94DF0288
:102CD000709239020E94030710911A06112309F419
:102CE0004BC08FB7F89410921A068FBF90913E0692
:102CF000892F10FD84E611FD865F12FD8A5013FDB9
:102D00008F5F14FD8150893C08F088EC8A3008F40C
:102D10008AE09817A1F09091350680933E069111B4
:102D2000C9C04091A6065091A7066091A80670916F
:102D3000A9068091A4060E94DA0A109240068091AA
:102D4000350615FF09C0803139F490913F06911185
:102D5000B7C092E090933F06107C71F0882311F089
:102D6000887351F01091A30616FFAEC01F7B812F10
:102D70000E94B2091093A306809135068C7F09F456
:102D8000B3CC0E94050BB0CC82FF16CF8860809335
:102D9000370612CF109239060E94EB06892B71F08C
:102DA0008091370686FD0AC01092370688E080932E
:102DB00035060E94050B0E94280314CF1092370697
:102DC000109235060FCF97FF0AC0109239060E9465
:102DD000BE090E94CC120E94FA080E9456068091F9
:102DE000370685FF08C08F7781608093370680E4BF
:102DF000809335061DCF109237061092350618CFF6
:102E0000A12EB12C189DC0011124855C9D4F0E94FC
:102E10007806962EC72ED82E092F9101A2010E9466
:102E200058398A9C70018B9CF00C11241816ACF553
:102E3000C701855C9D4F7C019101A201B101C201D6
:102E40000E949839F701668B778B808F918F8A9CCF
:102E5000C0018B9C900D11249C01255C3D4F790194
:102E6000F90122A033A044A055A0A20191016689D6
:102E70007789808D918D0E94583918162CF4F701AE
:102E8000268A378A408E518E1F5F103109F410E078
:102E9000292C3C2C4D2C502E0DCF9701255C3D4FFD
:102EA0007901292D3C2D4D2D502F692D7C2D8D2DF7
:102EB000902FC6CF809139068860809339063DCF28
:102EC00090FF4ACF946046CF106451CFF11032CEBC
:102ED000F5CC1F93CF93DF93142F20E030E040EA2E
:102EE00051E40E9498390E941F370E94B937EB01C4
:102EF0002097C9F080913606811115C011110DC0BF
:102F00000E9497172FEF80E792E021508040904079
:102F1000E1F700C000002197EBCF0E9423138091BE
:102F2000370681FFEFCFDF91CF911F910895CF92A8
:102F3000DF92EF92FF921F93CF93DF930E942313B0
:102F400080913706882309F46EC00E94EB06009733
:102F500009F03FC0C091A4068091A306C82BC09081
:102F6000A606D090A706E090A806F090A90680914A
:102F70008B0681FF03C080E20E943D02DC2FD073EC
:102F800011E0C07C80913706882309F44CC09091F1
:102F90003606911148C080FF19C090913506292F3F
:102FA000207C09F48DC082FD23C010923F0640E0D2
:102FB00050E0BA0180E00E94DA0A80E00E94B20983
:102FC000809137068D7F8460809337060E9423139B
:102FD000D9CFFC0121892073299908C0C0E0C22BF8
:102FE000FC01C6A4D7A4E0A8F1A8C1CFC0E4F7CFE4
:102FF000903821F58CED92E00E94C10485E492E0C6
:103000000E94C1040E94270640E050E0BA0180E01F
:103010000E94DA0A80E00E94B2090E949612809112
:103020003606882341F0DF91CF911F91FF90EF90FA
:10303000DF90CF9008950E942313F1CF903419F4BC
:103040008F7D809337068091370683FFBFCF9091A5
:10305000A406992359F081FD09C080918B0681FF58
:1030600022C0809139068860809339068091A3063A
:10307000882371F08091370681FD0AC08C2F0E9451
:10308000B20941E060E070E080E89FE30E946917C8
:103090008091370681FD9ACF80618093370682E068
:1030A0000E945F0293CFB701A6018D2F0E94DA0A1A
:1030B00041E060E070E080E890E40E946917D6CFBC
:1030C00080913F068823C9F181FF0DC08091A4063D
:1030D000882351F140E050E0BA0180E00E94DA0A12
:1030E00010933F0673CF8C7009F470CF8091A406C3
:1030F000882399F08CED92E00E94C1048EE492E066
:103100000E94C1040E94270680918B0681FF0FC098
:103110008091390688608093390680913F0683FF4D
:1031200003C082E00E945F0210923F064FCFB701BA
:10313000A6018D2F0E94DA0AF0CF8091390683FF15
:1031400045CFB701A6018D2F0E94DA0A809139067A
:10315000877F809339063ACF0E94FB060E9497171B
:1031600080913606811108C00E94EB06892BB1F7C9
:1031700080913506883091F30895CF93DF9391E5E0
:10318000899FE0011124DD5F40E550E0BE0185E14B
:1031900097E00E947009892B79F4109215070E941C
:1031A000AC1840E550E065E177E0CE010E942009CF
:1031B00080E0DF91CF91089581E0FBCF0E94AC18B1
:1031C000109241060895CF92DF92EF92FF92CF9333
:1031D00090913506923079F06A017B01C82F0E94E8
:1031E000AC18B701A6018C2FCF91FF90EF90DF9024
:1031F000CF900C94DA0ACF91FF90EF90DF90CF90B0
:1032000008950F931F93CF93C82F8B010E94AC1882
:103210002DE0C29FC00111244CE050E0B8019E5F38
:10322000CF911F910F910C9420091F93CF93DF939F
:10323000182FEB018DE0189FB00111247E5F4CE048
:1032400050E0CE010E947009892B71F48CE0FE01E0
:1032500011928A95E9F7BE01812F0E94011980E041
:10326000DF91CF911F91089581E0FACFEF92FF9205
:103270000F931F93CF93DF93CDB7DEB72C970FB685
:10328000F894DEBF0FBECDBF182F80FF0BC085E5C1
:10329000EBEEF1E0A6E4B6E005900D928A95E1F739
:1032A0000E945B0911FF10C0CE0101967C018CE0E9
:1032B000F70111928A95E9F700E0B701802F0E948B
:1032C00001190F5F0830C9F712FF14C060E080E0F9
:1032D00093E00E94000960E081E093E00E94000911
:1032E00060E081E593E00E94000960E082E593E000
:1032F0000E94000913FF0AC060E08EEA93E00E947A
:10330000000960E08FEA93E00E9400092C960FB656
:10331000F894DEBF0FBECDBFDF91CF911F910F910B
:10332000FF90EF9008952F923F924F925F926F928D
:103330007F928F929F92AF92BF92CF92DF92EF9245
:10334000FF920F931F93CF93DF93CDB7DEB7C45493
:10335000D1090FB6F894DEBF0FBECDBF78AF6FAB0B
:10336000B0905B052B2D30E03AAB29AB22E3B29E47
:10337000A0011124BA01655C7D4F7AAF69AFDB0112
:103380001D922A95E9F7EFA9F8AD2085DB0151964A
:103390002C934481558166817781E9ADFAAD46A7CA
:1033A00057A760AB71AB21FFA0C12CE0ECE1F6E0C8
:1033B000DE01599601900D922A95E1F78BAB9CABFB
:1033C00026E436E023963FAF2EAF2397BE01635F1E
:1033D0007F4F21967FAF6EAF2197CE0149969EAF6A
:1033E0008DAF4E0195E2890E911C9CAE8BAE10E024
:1033F00000E082E3A9A9BAA98A9F10018B9F300C33
:103400001124F101E55CFD4F1F019F01245F3F4F37
:1034100025963FAF2EAF259730E1230E311CABA987
:10342000BCA96D917D918D919D91BCABABAB239669
:10343000EEADFFAD2397419051906190719023962E
:10344000FFAFEEAF2397A30192010E9498390E942B
:1034500065392196AEADBFAD21976D937D938D9368
:103460009D932196BFAFAEAF2197EDADFEADC1905C
:10347000D190E190F190FEAFEDAF6C197D098E090E
:103480009F099B01AC0197FF07C022273327A901A1
:10349000261B370B480B590BE9ADFAADE00FF11FB6
:1034A00020833183428353832596AEADBFAD2597EC
:1034B000CD90DD90ED90FC90C216D306E406F506A3
:1034C00010F469017A012596EEADFFAD2597C08213
:1034D000D182E282F3820E94EA37A30192010E9424
:1034E0004037ABADBCAD6D937D938D939D93BCAFD9
:1034F000ABAF20E030E0A9010E94363787FF04C05F
:10350000F1018081816080830C5F1F4F0C301105B9
:1035100009F085CF80E0CD28CE28CF2809F4CBC094
:10352000CE0185960E94CF096B017C0182E329A917
:103530003AA9829F8001839F100D1124055C1D4FC5
:10354000D8015E96CD92DD92ED92FC929197BE01EC
:103550006B5D7F4F8EE596E00E946E08F801628FEA
:10356000738F848F958FBE016B5D7F4F82E596E0F0
:103570000E946E08D80196966D937D938D939C93CF
:1035800099975196AC90A0FEB4C0F80162A773A7BA
:1035900084A795A780913A02B81611F0A1FEC3C086
:1035A00082E329A93AA9829FF001839FF00D11249B
:1035B000E55CFD4F128A138A148A158A12A213A29F
:1035C00014A215A282E3E9A9FAA98E9F80018F9F18
:1035D000100D1124055C1D4FD80151968C9181FD71
:1035E00069C089AD9AAD0E9478066B017C0180901C
:1035F0001D0190901E01A0901F01B0902001AC0110
:103600009B01C501B4010E94363787FF57C1A50150
:103610009401C501B4010E949839F801668B778B3B
:10362000808F918F82E3E9A9FAA98E9F80018F9FF5
:10363000100D1124055C1D4FD80192968D909D9020
:10364000AD90BC909597A501940156966D917D9192
:103650008D919C9159970E94583918162CF4F801B5
:10366000868A978AA08EB18EC0921D01D0921E01CB
:10367000E0921F01F09220018CE0FE01B596A1E1DD
:10368000B1E001900D928A95E1F78CE0FE013D9644
:10369000A5E0B1E001900D928A95E1F780910401D7
:1036A00080935B058F5F803109F480E08093040193
:1036B0000E94030781E0CC5BDF4F0FB6F894DEBFBA
:1036C0000FBECDBFDF91CF911F910F91FF90EF9073
:1036D000DF90CF90BF90AF909F908F907F906F9032
:1036E0005F904F903F902F9008952CE0E5E0F1E03F
:1036F0005FCEAFA9B8AD2D913D914D915C91A3FCEA
:1037000006C0F80122A733A744A755A743CFC70196
:10371000B6010E949839D8019A966D937D938D9346
:103720009C939D9737CF61E171E078AF6FAB8E01CD
:103730000F5F1F4F14017CE0270E311CC12CD12CD0
:1037400076015801EFA9F8AD81919191A191B191C4
:10375000F8AFEFAB8BAB9CABADABBEABD4014D9038
:103760005D906D907D904D01A30192016BA97CA9A4
:103770008DA99EA90E9498399B01AC01C701B60191
:103780000E9440366B017C012BA93CA94DA95EA982
:10379000C301B2010E944036F80161937193819395
:1037A00091938F012814390469F62FEE3FEF4FE70C
:1037B0005FE3C701B6010E94583918165CF482E332
:1037C00029A93AA9829FF001839FF00D1124E55C9D
:1037D000FD4FF4CE2FEE3FEF4FE75FEBC701B60191
:1037E0000E94363787FF13C082E369A97AA9869FB2
:1037F000F001879FF00D1124E55CFD4F89E996E704
:10380000A6E9BEE782A393A3A4A3B5A3DBCEC5011B
:103810000E94CF09B5018EE596E00E946E084B012B
:103820005C01A701960160E070E080E89FE30E94E0
:10383000403620E030E040E05FE30E9498390E948B
:10384000373A6B017C0120917B0630917C064091D8
:103850007D0650917E06C501B4010E949839A701EA
:1038600096010E9498394B015C01A701960160E026
:1038700070E080E89FE30E9440369B01AC01C501E7
:10388000B4010E9440376B017C0120E030E0A901C7
:103890000E94363787FF03C0C12CD12C760182E30A
:1038A000A9A9BAA98A9FF0018B9FF00D1124E55CAC
:1038B000FD4FC2A2D3A2E4A2F5A284CEA701960135
:1038C000C701B6010E949839D80156966D937D9331
:1038D0008D939C935997A6CEFF920F931F93CF93EE
:1038E000DF938C01EB0180918B0685FF23C0F09064
:1038F000350680E2F81611F1C8010E94680288239B
:10390000C9F081E08093380688E0F8120CC00E946C
:103910005F020E9497178091360681110BC080913B
:1039200035068111F6CF0E94FF1282E00E944F02FD
:103930000E94971780913506823041F10E949717B7
:1039400080913606811122C090913A028091040143
:10395000981303C00E94FB06F1CFBE01C8010E946C
:103960009319811113C080918B0681FF0FC0888548
:1039700084FF0CC04C815D816E817F8180E1DF918D
:10398000CF911F910F91FF900C94E318DF91CF918D
:103990001F910F91FF9008952F923F924F925F9247
:1039A0006F927F928F929F92AF92BF92CF92DF924F
:1039B000EF92FF920F931F93CF93DF93CDB7DEB7B4
:1039C000CC54D1090FB6F894DEBF0FBECDBFEBEDDE
:1039D000F6E08AE3DF011D928A95E9F78BE0EBE9D7
:1039E000F6E0ACEDB6E001900D928A95E1F780919A
:1039F00015078432A1F01A8E1BA2312C212C1EA691
:103A00001DA610E01B8E1F8EEE24E394F12CAAE07D
:103A1000AA2EB12CB1E68B2EB3E09B2E4EC181E0D5
:103A20008093DC061092DD0683E08A8FB1E0BBA3B1
:103A3000E4CF9FEB9D0D9A3110F00C945A2A8F5FC2
:103A40008A8FBE016A5E7F4FCE014A960E94900126
:103A5000882311F40C945D2A4E885F88688C798CD9
:103A6000C301B2010E947B3A0E94B937062F70E071
:103A700090E080E00E94EA379B01AC01C301B201F3
:103A80000E94403620E030E048EC52E40E94983931
:103A90000E94053A0E94B937CB01E7E4DE1629F10E
:103AA000FDE4DF1609F465C1EAEBED0DE53108F040
:103AB0002CC00E2E000CFF0BE05AF24E0C94E33A91
:103AC000021F851D851D2F1F3A1F451F501F851D75
:103AD000541F851D621F851D6C1F761F801F851D4D
:103AE000851D851D901F9D1FAA1F083209F4DDC08A
:103AF00030F5043160F4013108F098C0043009F465
:103B000074C0B0F00A3009F468C084E196C00C318A
:103B100009F463C040F40631C0F725E1201B20936F
:103B2000DE0626E087C00E3109F457C0063269F779
:103B30004F8D41110C94602AA2E0AF8F28C00D3345
:103B400009F4AEC0E0F4053309F44FC088F40B3239
:103B500011F00133D1F6BF8DB1110C94602A0133FD
:103B600009F095C01092E106E3E0EF8F28E04FC026
:103B70000C3358F606530093E20629E05BC00C357F
:103B800008F50A3508F073C0003509F0BECF009380
:103B9000DC0621E0063209F04DC08431910551F078
:103BA0008E31910539F08832910521F082339105EB
:103BB00009F0ABCFB5010E94AD3A66576093DC06C1
:103BC00021E025C00C3549F00F3508F09ECF2EE5D9
:103BD000201B2093DD0625E02DC0009731F42F8DAA
:103BE00021110C94602A31E03F8F0093DB06202FD7
:103BF0002D7F2C3119F020E00C35E1F4009719F0FD
:103C00000A9709F082CF600F6093DB0620E0C701BE
:103C100002C0880F991F2A95E2F72DA53EA52823FB
:103C20003923232B09F443C085E107C001510093D8
:103C3000E00622E0892B59F387E1C45BDF4F0FB622
:103C4000F894DEBF0FBECDBFDF91CF911F910F91D2
:103C5000FF90EF90DF90CF90BF90AF909F908F90AC
:103C60007F906F905F904F903F902F900895892B99
:103C700029F40A550093DF0623E0C9CF6A307105A5
:103C800009F043CF0A3509F440CF24E0C0CF0A97AA
:103C900009F03BCFF1E0F093E10623E02F8F66CFF0
:103CA000892B09F032CF2AE0B2CF27E0C3CFADA5F0
:103CB000BEA5A82BB92BBEA7ADA78A8DE82FF0E033
:103CC000EB5EF84FD080D110B4CEBB8DBB2329F072
:103CD000EF8DE11102C0F2E0FF8F25FE0FC0809151
:103CE000F8069091F906A091FA06B091FB0681388A
:103CF0009649A849B10514F00C946C2A3BA13323D2
:103D000009F435C120FE45C18091DE068130B1F451
:103D100023E333E34BEC51E46091E7067091E8064E
:103D20008091E9069091EA060E9498396093E7062F
:103D30007093E8068093E9069093EA0630FC10C081
:103D40008091A6069091A706A091A806B091A90619
:103D50008093040790930507A0930607B093070785
:103D60008091DB06843009F02FC126FC2BC18CE149
:103D700064CF892B09F060CF063050F4033098F0FF
:103D80000430D9F080E10530C9F41092E50618C07E
:103D9000083008F4BACE0A3048F10E3109F0B5CE39
:103DA0000093E30604C0002321F00130C9F78BE043
:103DB00008C0B3E0B093E306FACF80E28093E50653
:103DC0008CE0F70102C0EE0FFF1F8A95E2F7CF01EA
:103DD0002DA53EA52E233923232B09F025CF2DA574
:103DE0003EA52E2B392B3EA72DA767CF093039F0E2
:103DF0008091E40680648093E4068DE0E2CF109227
:103E0000E406FBCF4092E7065092E8066092E9068E
:103E10007092EA0680E06701082E02C0CC0CDD1C1F
:103E20000A94E2F7960122213321232B11F00C94FE
:103E3000662AD40102C0B595A7958A95E2F7A0FF3E
:103E40000BC020E030E0A901C301B2010E94363767
:103E500087FF02C00C94692A2C283D282ECF40925F
:103E6000EB065092EC066092ED067092EE06116041
:103E700081E0D1CF4092EF065092F0066092F106B9
:103E80007092F206126082E0C6CF4092F306509222
:103E9000F4066092F5067092F606146083E0BBCFDC
:103EA0000093F70684E0B7CFC301B2010E94B23796
:103EB0006093F8067093F9068093FA069093FB06D8
:103EC00085E0A9CF4092FC065092FD066092FE0666
:103ED0007092FF0686E09FCF409200075092010744
:103EE000609202077092030787E095CF4092040723
:103EF00050920507609206077092070788E08BCF03
:103F000020E030E04FE753E4C301B2010E9458398A
:103F1000181614F40C94632A0093080789E07BCFE9
:103F20004092090750920A0760920B0770920C07A3
:103F30003B8D31603B8F8AE06ECF40920D075092EF
:103F40000E0760920F07709210074B8D42604B8FE7
:103F50008BE061CF409211075092120760921307D5
:103F6000709214078B8D84608B8F8CE054CF80917E
:103F7000DD06813081F44F8D423009F0DFCE809133
:103F8000DC06803509F4DACE882309F4D7CE20FC8C
:103F9000D5CE86E152CE80919C068111CFCE20FCF9
:103FA000B3CE8091AA069091AB06A091AC06B091D9
:103FB000AD068093E7069093E806A093E906B093D8
:103FC000EA06BCCEE89426F88091E006882359F0F2
:103FD000813009F4BBC022961FAE2297A2E0ABAF9E
:103FE000B1E0B9AF07C082E022968FAF229791E08F
:103FF0009BAF19AE8091DE06813071F5EBEDCE2ED0
:10400000E6E0DE2EF12CE12C2B8DA22EB12CC50189
:104010000E2C02C0959587950A94E2F780FF12C096
:1040200023E333E34BEC51E4D6019E966D917D91F1
:104030008D919C91D1970E949839F60166A777A738
:1040400080AB91ABFFEFEF1AFF0A24E0C20ED11C48
:1040500033E0E316F104D9F64F8D433049F48091F3
:10406000E106813029F48B8D843011F00C946F2A95
:104070008CE0EFEBF6E0DE01119601900D928A954F
:10408000E1F7ADA5BEA5B1FD69C00091DB060A3020
:1040900009F478C00C3509F419C19F8D933009F4E7
:1040A0003FC0AB8DAA23E1F1B091DF06BFA38091A1
:1040B000D7069091D806A091D906B091DA0689A7C3
:1040C0009AA7ABA7BCA79BE9A92E96E0B92E2BED2A
:1040D000C22E26E0D22EF12CE12C9B8D892E912C24
:1040E000C4010E2C02C0959587950A94E2F780FDD5
:1040F0005DC1F501808D918DA28DB38DF60186A7EE
:1041000097A7A0ABB1ABFFEFEF1AFF0A24E0A20E16
:10411000B11C34E0C30ED11C43E0E416F10401F7F6
:104120000E3109F494C1053309F4B8C16BEE76E0A1
:1041300086E00C3109F02DC10E941519882301F188
:104140008B8D811188C119A61F8EA9C0E1E022962E
:10415000EFAF22971BAEF2E0F9AF4CCF8091E206B1
:10416000873010F08DE169CD9091A106891709F48F
:104170008CCFBE016F5F7F4F0E941519811185CFD3
:1041800087E05BCDBB8DB11102C08AE156CDC10184
:1041900080759927892B09F4EACD6091FC0670910E
:1041A000FD068091FE069091FF060E947B3A0E94D8
:1041B000B9376730B8F68091F706843129F082303C
:1041C00009F0A3CC27FCA1CC662309F474C061508C
:1041D00069A76BEE76E089A50E941519882381F204
:1041E0000091F7064090D7065090D8066090D90607
:1041F0007090DA067BEDC72E76E0D72EF12CE12CFD
:104200003B8D232F30E038A72FA38FA198A50E2C2C
:1042100002C0959587950A94E2F780FF33C0D601D6
:104220009E968D909D90AD90BC90D197043109F0F1
:1042300046C0F701EE0FFF1FEE0FFF1FE556F94FC7
:1042400020A931A942A953A9608D718D828D938DCA
:104250000E944036A50194010E944036F601608B11
:10426000718B828B938BF2E0EF120CC0A301920151
:104270000E9440366093F3067093F4068093F5062F
:104280009093F606BFEFEB1AFB0AE4E0CE0ED11CCA
:10429000F3E0EF16F10409F0B8CF2FEA2222809163
:1042A000DC068FA3803509F000C19B8D992309F4AA
:1042B00006C18FE1C2CCE091E206E9A78ACF509611
:1042C0008D929D92AD92BC925397DCCF3B8D332360
:1042D00009F45BCF4090D7065090D8066090D9067D
:1042E0007090DA064BE9842E46E0942ECE010196BA
:1042F0007C015BEDA52E56E0B52ED12CC12CA32F51
:10430000B0E0B8A7AFA38FA198A50C2C02C09595DB
:1043100087950A94E2F780FF3EC0F7012081318142
:1043200042815381D40158966D917D918D919C91DC
:104330005B970E944036F50126A537A540A951A9F3
:104340000E944036D5019E966D937D938D939C93EC
:10435000D197B2E0CB120CC0A30192010E9440366B
:1043600060931107709312078093130790931407BB
:10437000FFEFCF1ADF0A24E0820E911C34E0E30E37
:10438000F11C44E0A40EB11C83E0C816D10409F06E
:10439000BACF19A684CFF40180A991A9A2A9B3A983
:1043A000F50186A797A7A0ABB1ABE2CF053309F41F
:1043B000AACED6019E964D905D906D907C90D1973F
:1043C000BFA1B11133C0F701EE0FFF1FEE0FFF1FAA
:1043D00021E030E02C0F3D1FE20FF31FD501D096F6
:1043E0002D913D914D915C91D39760817181828136
:1043F00093810E944136A30192010E944136F60149
:1044000066A777A780AB91ABF2E0EF127CCE29A52F
:104410003AA54BA55CA50E944136609311077093A5
:10442000120780931307909314076DCEA301920196
:10443000D50158966D917D918D919C915B970E94CD
:104440004136F60166A777A780AB91AB5CCE6BEEE9
:1044500076E087E071CEABE9B6E0EBEDF6E090E018
:1044600080E04B8D242F30E0A901082E02C0559525
:1044700047950A94E2F740FD0AC058964D915D9128
:104480006D917C915B97408B518B628B738B019606
:10449000149634968330910539F77BCF8091DC06F2
:1044A000823008F476CF8EE1C8CBAF8DA23039F4DC
:1044B000BFA1B11173C0EB8DEE2309F48DC02BA108
:1044C0002170EBA1C101E0FFD8C28E7DFF8DF111FB
:1044D000937E892B11F00C94782A8E01035F1F4F75
:1044E00089E0D8011D928A95E9F7222309F4C8C210
:1044F0008DA59EA5867B892B11F00C947B2A80913B
:10450000DB06853319F081110C947B2A8091A60675
:104510009091A706A091A806B091A906898B9A8BC5
:10452000AB8BBC8B8091A4069091A306892B409104
:10453000E7065091E8066091E9067091EA064D871A
:104540005E876F87788B84608D8B80918B0685FF6B
:1045500006C089E097E00E9468028111CFC7B801C8
:1045600089E097E00E946C1C8091350681110BC098
:104570000E94EB06892B39F080E2809335060E9479
:10458000050B0E9428038CE0E9E0F7E0A3EBB6E01E
:1045900001900D928A95E1F780E04FCB20E030E06A
:1045A000A9016091E7067091E8068091E906909173
:1045B000EA060E943637882309F4EBCCFFA1FC38C9
:1045C000B9F060F4F23059F1F33061F1F13009F0F3
:1045D00076CF3B8D311173CF1F8E71CF2FA12E3827
:1045E00039F018F02F3809F06ACF9BA190619BA396
:1045F0008FA18E58823018F4ABA1A860ABA3BB8DFD
:10460000BB2309F4C2CD4CE050E069E077E083EBD6
:1046100096E00E94033B892B09F051CF6DC04BA15E
:1046200044604BA38B8D882309F4AFCDB9ADAB2F7C
:10463000B0E0BAABA9ABFBADEF2FF0E0FEABEDAB5A
:1046400081E090E07C0109AC02C0EE0CFF1C0A94F2
:10465000E2F70BAC02C0880F991F0A94E2F7E82A30
:10466000F92A2B8D822F90E08E219F21892B09F42E
:1046700039C7FD01EE0FFF1FEE0FFF1FE552F94F87
:10468000AA0FBB1FAA0FBB1FAD54B94F2D913D916F
:104690004D915C9166A577A580A991A90E944036AD
:1046A0002B013C01EDA9FEA9EE0FFF1FEE0FFF1F2E
:1046B000E552F94FADA9BEA9AA0FBB1FAA0FBB1F98
:1046C000AD54B94F2D913D914D915C9166A577A563
:1046D00080A991A90E9440364B015C0127FEFFC0D2
:1046E000E89427F84CE050E069E077E083EB96E04F
:1046F0000E94033B892B11F481E29FCA609100075D
:104700007091010780910207909103072091DE06C6
:10471000213071F423E333E34BEC51E40E949839E8
:10472000609300077093010780930207909303073B
:104730008091000790910107A0910207B0910307B3
:1047400021968CAF9DAFAEAFBFAF2197A301920171
:10475000C301B2010E94983929966CAF7DAF8EAF2C
:104760009FAF2997A5019401C501B4010E94983912
:104770002D966CAF7DAF8EAF9FAF2D9720E030E0D0
:1047800040E850E421966CAD7DAD8EAD9FAD219794
:104790000E94983921962CAD3DAD4EAD5FAD21976D
:1047A0000E94983929962CAD3DAD4EAD5FAD29974D
:1047B0000E9440362D962CAD3DAD4EAD5FAD2D9790
:1047C0000E9440366B017C0120E030E0A9010E948C
:1047D000363787FD8AC6C701B6010E94373A6B019A
:1047E0007C012D962CAD3DAD4EAD5FAD2D9729963C
:1047F0006CAD7DAD8EAD9FAD29970E9441360E9474
:10480000373A9B01AC01C701B60190580E9440376E
:104810006B017C019FA1933021F4F7FAF094F7F833
:10482000F09420E030E0A90121966CAD7DAD8EAD15
:104830009FAD21970E94363787FF13C0F7FAF09497
:10484000F7F8F09421968CAD9DADAEADBFAD21973C
:10485000B0588093000790930107A0930207B0938C
:10486000030709A91AA9000F111F000F111F0551F5
:10487000194FA7019601C501B4010E9498399B0107
:10488000AC01C301B2010E94403620E030E040E0BC
:104890005FE30E949839D8016D937D938D939C932B
:1048A00013970DA91EA9000F111F000F111F05510D
:1048B000194FA7019601C301B2010E949839A501C1
:1048C00094010E94413620E030E040E05FE30E9426
:1048D0009839F8016083718382839383F0CDC12E70
:1048E000D12CE122FD2083E2EF2809F4A6C9F1EFE3
:1048F0002F228091DE06813041F50BED16E0F12C80
:10490000E12CC6010E2C02C0959587950A94E2F71A
:1049100080FF12C023E333E34BEC51E4D8015096FF
:104920006D917D918D919C9153970E949839F801DA
:10493000608B718B828B938BFFEFEF1AFF0A0C5FFA
:104940001F4F23E0E216F104E1F6E9A9FAA9EE0F00
:10495000FF1FEE0FFF1FE551F94FC080D180E280AD
:10496000F380A7019601C301B2010E9440362B01DA
:104970003C01EDA9FEA9EE0FFF1FEE0FFF1FE55151
:10498000F94F80819181A281B38189AB9AABABABA6
:10499000BCAB9C01AD01C501B4010E9440364B0186
:1049A0005C01A3019201C301B2010E9498392B015D
:1049B0003C01A5019401C501B4010E9498399B01F5
:1049C000AC01C301B2010E9441360E94373A4B014B
:1049D0005C01A7019601C701B6010E9498396B01DD
:1049E0007C0129A93AA94BA95CA9CA01B9010E9475
:1049F00098399B01AC01C701B6010E9441360E9463
:104A0000373A6B017C01C0920007D0920107E09217
:104A10000207F0920307AC019B01C501B4010E949B
:104A200040364B015C01E894B7F82AE037ED43EAE1
:104A30005BE3C501B4010E94583918160CF03FCD54
:104A400020E030E040E05FE3C501B4010E94583946
:104A500018160CF451CE2FE632E143E85AE3C701B1
:104A6000B6010E9498399B01AC01C501B4010E94B6
:104A7000583918160CF023CD3FCE8E7D9C7F26CD65
:104A800080918B06F090A40681FF12C08FA1815007
:104A9000833018F0BBA1B064BBA3EB8DEE2309F407
:104AA00043C1FF8DF23009F03FC12BA120682BA339
:104AB0008091F8069091F906A091FA06B091FB0654
:104AC0008093AF069093B006A093B106B093B20660
:104AD0008091DD0680939C06882311F088E08D8B01
:104AE0008091E7069091E806A091E906B091EA0668
:104AF0008093AA069093AB06A093AC06B093AD0644
:104B00008D879E87AF87B88B8090040790900507AC
:104B1000A0900607B0900707A50194016091A60632
:104B20007091A7068091A8069091A9060E94363739
:104B30009BA19074E92E811103C0ABA1A5FF1FC0FA
:104B4000FF2069F0BBA1B7FD0AC040E050E0BA0108
:104B5000E11002C0B501A4018F2D0E94E3188091DD
:104B6000040790910507A0910607B091070780936D
:104B7000A6069093A706A093A806B093A906E110F5
:104B80000CC08091A6069091A706A091A806B091AE
:104B9000A906898B9A8BAB8BBC8B8091080780937D
:104BA000AE068091E5069091A406981751F04989C8
:104BB0005A896B897C890E94E3188091E50680936D
:104BC000A4068D899091A406892B8D8BF090E40624
:104BD0008091A3068F1569F080913506823029F007
:104BE0000E94AC188F2D0E94B2098091E406809338
:104BF000A3068D899091A306892B8D8B8091DB066E
:104C0000843099F480913506823079F0C090FC06AA
:104C1000D090FD06E090FE06F090FF060E94AC18D2
:104C200040E0C701B6010E9469178091E0068093B9
:104C30009F068091DE0680939D06EF8DE33071F52F
:104C40008091E1068093A006811108C0109211079F
:104C5000109212071092130710921407C0901107B8
:104C6000D0901207E0901307F0901407A701960167
:104C70006091D7067091D8068091D9069091DA0696
:104C80000E943637882351F0C092D706D092D806BA
:104C9000E092D906F092DA060E94DE188091E206D0
:104CA0009091A106981769F08093A1068CE0FE010F
:104CB0003196AFEBB6E001900D928A95E1F70E9434
:104CC000DE188091DF0680939E068091DB06863297
:104CD00009F47EC008F03FC08C3109F45FC08E310A
:104CE00009F45CC08A3009F443C08091DC068093EB
:104CF0009B06803509F449C3BF8DB23009F045C326
:104D0000813009F079C0BE01635F7F4F89E097E091
:104D10000E946C1C8CE0E9E0F7E0A3EBB6E00190A8
:104D20000D928A95E1F731C330E1F312C1CE9BA118
:104D3000907480919B068150833038F4992309F454
:104D4000B7CE4BA140624BA3B3CE9111B1CE8BA194
:104D500080628BA3ADCE8C3509F440C0863609F451
:104D600043C0883209F0C1CF63EB76E087E033C0FF
:104D70006BEE76E089A50E9401198091A106F9A544
:104D8000F813B3CF8CE0EBEEF6E0AFEBB6E00190BA
:104D90000D928A95E1F70E94DE18A7CF8D89816078
:104DA0008D8B2F8D222329F0B80189E097E00E9496
:104DB0006C1CB8018BEE96E00E946C1C8CE0EBEE54
:104DC000F6E0A3EBB6E001900D928A95E1F78DCF66
:104DD00063EB76E086E00E94011987CF8CE0E9E082
:104DE000F7E0ABECB6E0D3CFEBECF6E08CE0DF0124
:104DF0001D928A95E9F7CFCF811105C08D89816019
:104E00008D8BB80183CF8250823008F097C2809199
:104E1000000790910107A0910207B09103078F8FBF
:104E200098A3A9A3BAA3A9AD94E0A99F70011124E6
:104E3000F701ED54F94FF8A7EFA397012551394F2A
:104E40003AA729A7D9014D905D906D907C90208163
:104E5000318142815381C301B2010E9441366DA765
:104E60007EA78FA798ABEBADB4E0EB9F8001112438
:104E700098012D54394F3AAF29AFC8018551994F48
:104E80009CAF8BAFDC018D909D90AD90BC90F901F3
:104E90002081318142815381C501B4010E94413694
:104EA00069AB7AAB8BAB9CAB77FA709477F8709464
:104EB000D501C401B0588B8F9C8FAD8FBE8FF70189
:104EC000E75FF84F2DA53EA54FA558A960817181D8
:104ED000828193810E9440366B017C01F801E75F7B
:104EE000F84F29A93AA94BA95CA9608171818281F7
:104EF00093810E9440364B015C01A7019601C301DA
:104F0000B2010E9498396DAB7EAB8FAB98AFA50113
:104F100094016B8D7C8D8D8D9E8D0E9498399B01A7
:104F2000AC016DA97EA98FA998AD0E9441366DABE9
:104F30007EAB8FAB98AFA5019401C301B2010E9473
:104F400098394B015C01A70196016B8D7C8D8D8D8D
:104F50009E8D0E9498399B01AC01C501B4010E944D
:104F600040362DA93EA94FA958AD0E94C0366B010D
:104F70007C019BA192FF68C12DEB37E346E055EB26
:104F8000C701B6010E94583987FD0AC02BED3FE0EA
:104F900049EC50E4C701B6010E9440366B017C0128
:104FA00080907F0690908006A0908106B090820647
:104FB0002F8D38A149A15AA1CA01B9010E944136D9
:104FC000A50194010E944036A50194010E949839E0
:104FD0000E94373A4B015C0120E030E040E05FE3A3
:104FE000C701B6010E9498392F8D38A149A15AA155
:104FF0000E9498399F77A50194010E9440370E9432
:1050000025380E94B9377EAB6DABDB01AB2B09F4C1
:105010007ACE1D8990E080E00E94E8374B015C0168
:1050200013FF0EC0AC019B016D857E858F8598892D
:105030000E9498396D877E878F87988B177F1D8B8D
:10504000A5019401C701B6010E9440376BA37CA360
:105050008DA39EA32296EFAD2297B4E0EB9FC001F3
:1050600011248C010D54194F875F984FD8012D9151
:105070003D914D915C91FC016081718182819381B0
:105080000E944036A50194010E94403729966CAFDA
:105090007DAF8EAF9FAF29972BA13CA14DA15EA103
:1050A000CA01B9010E9498399B01AC0160E070E02F
:1050B00080E090E40E9440366B017C012BEA3AEAE2
:1050C0004AE25EE36BA17CA18DA19EA10E9498396A
:1050D0004B015C0120E030E040E850E4C701B6013C
:1050E0000E9441369B01AC01C501B4010E94983970
:1050F00021966CAF7DAF8EAF9FAF219720E030E05F
:1051000040E05FE3C701B6010E94983925966CAF75
:105110007DAF8EAF9FAF25971F8E22242394312C15
:10512000EDA9FEA9E215F30509F4EDCDFF8DFC30E4
:1051300008F09EC0A301920121966CAD7DAD8EADAD
:105140009FAD21970E9498396B017C012B8D3C8D7E
:105150004D8D5E8D25966CAD7DAD8EAD9FAD259749
:105160000E9498399B01AC01C701B6010E944136EB
:105170007B016C01A301920125966CAD7DAD8EADD6
:105180009FAD25970E9498394B015C012B8D3C8D7A
:105190004D8D5E8D21966CAD7DAD8EAD9FAD219711
:1051A0000E9498399B01AC01C501B4010E944036B0
:1051B0002B013C012F8D2F5F2F8F470156018B8EC6
:1051C0009C8EAD8EBE8EA30192016DA57EA58FA58E
:1051D00098A90E944136EFA1F8A56083718382836C
:1051E00093832B8D3C8D4D8D5E8D69A97AA98BA9FA
:1051F0009CA90E944136A9ADBAAD6D937D938D9364
:105200009C93139729962CAD3DAD4EAD5FAD29977C
:10521000F80160817181828193810E944136D801B9
:105220006D937D938D939C931397BE01635F7F4F26
:1052300083EB96E00E946C1C8091360681116ACD4A
:10524000BFEF2B1A3B0A6CCF2DEB37E346E055E35B
:10525000C701B6010E94363718160CF4A1CE2BED0B
:105260003FE049EC50E4C701B6010E94413696CEBA
:10527000B10190E080E00E94E8372BA13CA14DA154
:105280005EA10E9498396B017C010E943B376B8FB5
:105290007C8F8D8F9E8FC701B6010E94293A4B01EA
:1052A0005C01A9A5BAA5CD90DD90ED90FC90F7FA30
:1052B000F094F7F8F094ABADBCAD8D919D910D904D
:1052C000BC91A02D8F8F98A3A9A3BAA3A701960183
:1052D0006B8D7C8D8D8D9E8D0E9498392B013C01AC
:1052E0002F8D38A149A15AA1C501B4010E94983956
:1052F0009B01AC01C301B2010E9441362B013C016C
:10530000A7019601C501B4010E9498396B017C0187
:105310002F8D38A149A15AA16B8D7C8D8D8D9E8DCD
:105320000E9498399B01AC01C701B6010E9440362A
:105330006B8F7C8F8D8F9E8F1F8E45CF8D89846064
:105340008D8B80913506823009F4E4CC0E94AC1834
:1053500080913606811119C0FBA1F071FF2E1092C9
:105360003A062BA123FB882780F90E94AB0383B167
:10537000827090911B06891719F184E00E944F02F8
:105380000E94971780E00E94AB038091E306809310
:10539000A206882311F40C941D1E0E94AC18809163
:1053A000A20690913506833009F04DC0923029F065
:1053B00088E00E945F020E9497171092A206ECC834
:1053C000B80189E097E00E946C1C81E0809334066C
:1053D00082E00E945F020E94971780913606811139
:1053E000D4CF809135068111F6CF8091340681307B
:1053F00031F5FF2001F18CE0ECE1F6E0A8E2B6E047
:1054000001900D928A95E1F71092340680E00E9497
:10541000AB030E9497170E94CC120E94BE090E9403
:1054200056060E942C0680913A06882309F472CC15
:105430000E94FA08AACF85E00E944F02E5CF81E0E2
:1054400080933A06E1CF81E080939B0610929F06FD
:1054500010929E0610929C061092A1061092A4062D
:105460001092A30684E680933C0680933D068093C9
:105470003E069230A1F06FEB76E080E00E941519B5
:10548000882311F40C94C0200E94DE1840E050E004
:10549000BA0180E00E94DA0A80E00E94B2098CED35
:1054A00092E00E94C10483E792E00E94C1040E943E
:1054B000270683CF81E00C941D1E82E00C941D1EF4
:1054C00088E10C941D1E86E20C941D1E89E10C944B
:1054D0001D1E84E00C941D1E8BE10C941D1E85E2A4
:1054E0000C941D1E80E20C941D1E82E20C941D1E65
:1054F00084E20C941D1E80E10C941D1E8FE00C9420
:105500001D1ECF93DF93C0E08C2F0E94BD18811128
:1055100014C0109215078EE30E9482030E949E031E
:105520008AE30E94820387E00E94D304C13019F409
:10553000DF91CF910895C1E0E7CF809115078823CF
:10554000A9F30E94CC1CD82F8EE30E9482030E94F4
:105550009E038AE30E9482038D2F0E94DF04E6CF20
:105560002F923F924F925F926F927F928F929F9273
:10557000AF92BF92CF92DF92EF92FF920F931F9361
:10558000CF93DF93CDB7DEB7A2970FB6F894DEBF07
:105590000FBECDBF9091360691110EC1782E9E019F
:1055A000235F3F4F3A8F298F89E0D9011D928A9559
:1055B000E9F786E08D8BE6E4F6E0FC8FEB8F7F0168
:1055C000275F3F4F690110E000E0812C912C5401CE
:1055D00022242394872D90E09E8F8D8FD6012D92CB
:1055E0006D018D8D9E8D002E02C0959587950A9434
:1055F000E2F780FF19C020E030E040EC5FEBF701FC
:1056000064A175A186A197A10E949839362E472ED4
:10561000582E692EA50194010E94363787FD04C0DB
:10562000832C942CA52CB62C0F5F1F4FF4E0EF0EAB
:10563000F11C0330110591F62090910630909206EE
:10564000409093065090940684E0682E01E06CE14F
:1056500076E0CE0101960E94A30280918C06282F4D
:1056600030E03AA329A3FE0131968CE196E098A39D
:105670008F8F6C01F12C10E090E080E0B501A40167
:1056800070582D8D3E8D082E02C0359527950A94B1
:10569000E2F720FF26C0F394D6011D921D921D92C1
:1056A0001C92139729A13AA1082E02C0359527957F
:1056B0000A94E2F720FF07C0002339F040835183AA
:1056C0006283738306C00023C9F380829182A28221
:1056D000B382A6E1B0E0AC0FBD1FA80FB91F2C919B
:1056E000122B01963496B4E0CB0ED11C8330910579
:1056F00041F66F2D70E090E080E00E94E8370E9454
:10570000373A10933B06A20191010E9498396D87A8
:105710007E878F87988BBE01635F7F4FCE01019696
:105720000E949319E4E0E09339060E94050B0E9461
:1057300028030023E9F00E94C408FE01769630E0B9
:1057400020E090E06191462F412359F0AC01022EF8
:1057500002C0559547950A94E2F740FF02C0609554
:1057600016232F5F3F4F2330310561F710933B061F
:105770000E94050B80911706847309F4B3C0109141
:10578000170614FF03C086E00E944F0215FF03C0F6
:1057900087E00E944F020111BFC00E94C408872108
:1057A00019F088E00E944F02809118068823E9F0E2
:1057B0000E94FF120E949717A2960FB6F894DEBFC0
:1057C0000FBECDBFDF91CF911F910F91FF90EF9052
:1057D000DF90CF90BF90AF909F908F907F906F9011
:1057E0005F904F903F902F90089584E00E94550263
:1057F0000E94CC128091950690919606019708F030
:1058000074C0E1E00E27C0909706D0909806E09013
:105810009906F0909A06002309F46EC020E030E06B
:1058200040EA50E4C701B6010E9498394B015C017F
:1058300020908D0630908E0640908F0650909006F6
:105840006A94611004CF20908C06312C2601370118
:1058500077FA709477F8709410E000E08D8D9E8D4B
:10586000002E02C0959587950A94E2F780FF26C026
:10587000AB8DBC8D8D909D90AD90BC901397C10168
:10588000002E02C0959587950A94E2F780FF3FC0ED
:1058900094962D913D914D915C919797C701B601DA
:1058A0000E944136A50194010E9498390E946539F1
:1058B000EF8DF8A160837183828393830F5F1F4F05
:1058C0002F8D38A12C5F3F4F38A32F8F8B8D9C8D50
:1058D00004969C8F8B8F0330110509F0BFCF109277
:1058E00039066ACF10FD25CF83CFAFE9BFE011970E
:1058F000F1F700C0000082CF209091063090920610
:1059000040909306509094064601570199CFA50107
:105910009401C301B201C8CF12FF46CF89E042CF44
:105920001F920F920FB60F9211242F933F934F9314
:105930005F936F937F938F939F93AF93BF93EF93F7
:10594000FF9319990CC00E94FF1280911706826084
:105950008093170680911706886080931706FF9141
:10596000EF91BF91AF919F918F917F916F915F91D7
:105970004F913F912F910F900FBE0F901F90189550
:105980001F920F920FB60F9211248F9380911302E2
:1059900080FD289A80FF289815BC8F910F900FBE2C
:1059A0000F901F9018951F920F920FB60F9211240F
:1059B0002F933F934F935F936F937F938F939F9317
:1059C000AF93BF93EF93FF93809115028111A6C20D
:1059D0008091250280FD289A80FF289885B18E7FCE
:1059E00090912402892B85B98091230286BD82E0A3
:1059F00085BD81E080931502789480913702909163
:105A00003802892B09F0AAC080915C059091880525
:105A1000981709F470C2E0915C052E2F30E087E002
:105A2000E89FF0011124E25AFA4FF0933802E09314
:105A300037028281938190938900809388008081CE
:105A400091819093330280933202E48180913402F9
:105A50008E1761F1E093340282E1E89FF001112496
:105A6000E557FA4FF0933602E09335028485958529
:105A7000A685B785B695A7959795879580931E02BD
:105A800090931F02A0932002B093210280931A02E8
:105A900090931B02A0931C02B0931D0280931602E8
:105AA00090931702A0931802B0931902A0913502A7
:105AB000B091360250968C9150979091140289279C
:105AC0008093250287E0829FF001839FF00D1124CF
:105AD000E25AFA4F25814D915D916D917C9113971A
