:100000000C9466010C9483010C9483010C94B22E21
:100010000C94D02A0C9483010C9483010C948301DA
:100020000C9483010C9483010C9483010C94F62AA4
:100030000C9483010C9483010C9483010C94830130
:100040000C94DA2A0C9483010C94E82D0C94882EDD
:100050000C9483010C9483010C9483010C94830110
:100060000C9483010C948301084AD73B3BCE016E6C
:1000700084BCBFFDC12F3D6C74319ABD56833DDAFF
:100080003D00C77F11BED9E4BB4C3E916BAAAABE0E
:10009000000000803F05A84CCDB2D44EB93836A937
:1000A000020C50B9918688083CA6AAAA2ABE000074
:1000B00000803F000D0A4772626C20312E316820AB
:1000C0005B27242720666F722068656C705D0D0ABF
:1000D00000244E005B4F50543A005B5645523A3173
:1000E0002E31682E32303139303833303A005B549B
:1000F0004C4F3A005B4739323A0033300032380017
:100100005B4700204700204D00204600205400336C
:10011000382E005B47433A47005B484C503A242452
:1001200020242320244720244920244E2024783DC5
:1001300076616C20244E783D6C696E6520244A3DC2
:100140006C696E652024534C502024432024582091
:100150002448207E2021203F206374726C2D785D1E
:100160000D0A00414C41524D3A007C413A007C4F0F
:10017000763A007C57434F3A007C506E3A007C46FA
:100180003A007C42663A007C57506F733A007C4DCF
:10019000506F733A00536C65657000446F6F723A2C
:1001A00000436865636B00416C61726D00486F6D60
:1001B00065004A6F6700486F6C643A0052756E00C4
:1001C00049646C65000D0A005B5052423A0065724A
:1001D000726F723A00000000430000004300007A92
:1001E0004300006144000061440000FA4300C8AFCE
:1001F0004800C8AF4800A00C470000FAC30000FA4E
:10020000C3000048C30A000019010AD7233C6F123B
:10021000033B00007A440000000000000000C841D9
:100220000000FA43FA000000803F6F6B0D0A005394
:100230006C656570696E6700526573746F72696E84
:1002400067207370696E646C6500526573746F72B9
:10025000696E672064656661756C74730050676DC4
:1002600020456E6400436865636B204C696D69745A
:100270007300436865636B20446F6F720044697359
:1002800061626C656400456E61626C656400436127
:100290007574696F6E3A20556E6C6F636B656400A0
:1002A000272448277C2724582720746F20756E6CDC
:1002B0006F636B00526573657420746F20636F6E9B
:1002C00074696E7565005B4D53473A0011241FBE7B
:1002D000CFEFD8E0DEBFCDBF11E0A0E0B1E0E0E4B9
:1002E000F2E702C005900D92A430B107D9F727E0DC
:1002F000A4E0B1E001C01D92A231B207E1F70E9473
:10030000E12E0C941E390C9400008F929F92AF92B4
:10031000BF92CF92DF92EF92FF920F931F93CF93F2
:10032000DF937C016B01DC01EC91F0E0EE53F94FBF
:100330008081EF018D3229F52296818101E0912C97
:10034000F0E010E020E030E0A9015E01E0EDE80F10
:10035000EA3018F5FF5FF930E0F491101150A5E094
:10036000B0E00E94F7389B01AC01220F331F441FFD
:10037000551F2E0F311D411D511D2196D5018C9108
:10038000E4CF8B3219F0219600E0D9CF22968181FB
:10039000FBCF9110F2CF1F5FF0CFEE3F29F4911009
:1003A00003C099249394E9CFFF23F9F0CA01B9015E
:1003B0000E94F6354B015C0120E030E0A9010E946B
:1003C000443581112BC0002309F445C0B7FAB0941D
:1003D000B7F8B094F60180829182A282B382C25CA7
:1003E000D640C150F701C083F1E08F2FDF91CF914C
:1003F0001F910F91FF90EF90DF90CF90BF90AF9043
:100400009F908F9008952AE037ED43E25CE3C501A9
:10041000B4010E94A6374B015C011E5F1F3F9CF395
:100420001F3F59F42DEC3CEC4CEC5DE3C501B401ED
:100430000E94A6374B015C01C6CF112321F220E0B8
:1004400030E040E251E4C501B4010E94A6374B01FF
:100450005C011150F2CFD6018D929D92AD92BC926B
:100460001397BDCF2FB7F8949091CB05892B80932C
:10047000CB052FBF08952FB7F8949091CA05892B0B
:100480008093CA052FBF08959FB7F8948093C9053C
:100490009FBF08959FB7F8942091C8058095822347
:1004A0008093C8059FBF08952FB7F8949091C80511
:1004B000892B8093C8052FBF0895AF92BF92CF922A
:1004C000DF92EF92FF920F931F93CF93DF93EC0194
:1004D00007E116E05C018CE0A80EB11CC990D99030
:1004E000E990F99020E030E0A901C701B6010E942F
:1004F00066371816DCF0F801219131914191519144
:100500008F01C701B6010E94443587FD0FC0CA158F
:10051000DB0521F780E0DF91CF911F910F91FF90D4
:10052000EF90DF90CF90BF90AF90089581E0F3CF30
:100530008F929F92AF92BF92CF92DF92EF92FF92F3
:100540000F931F93CF93DF93EB0123EFE22E25E070
:10055000F22E8C016B018CE0C80ED11C699179914F
:1005600089919991F70181909190A190B1907F012B
:100570000E94F835A50194010E944E35F80161935F
:100580007193819391938F01CC15DD0539F7DF913C
:10059000CF911F910F91FF90EF90DF90CF90BF9080
:1005A000AF909F908F900895CF93DF93C091C60531
:1005B000D091C7052097C9F080919C0581608093F8
:1005C0009C056091B2057091B3058091B40590913E
:1005D000B5059B01AC010E94A6376A8B7B8B8C8B87
:1005E0009D8B1092C7051092C605DF91CF9108959B
:1005F00090912406492F80912506282F90FF11C045
:1006000094E080FF10C080E241FD986021FD80648D
:1006100042FD906122FD806890931502809317023D
:10062000089590E0EECF80E0EFCF8091380682FF12
:1006300013C0289A80911502809327028091230687
:100640008250990B880F81958093260280916F00CC
:10065000826080936F0008952898ECCF9091E70511
:10066000911105C0811104C02C981092F1050895D4
:10067000803119F42D982C9AF8CF2D9AFCCF249A1A
:10068000259A2C980895E091260191E09E0F9936C5
:1006900009F490E020919001291761F0F0E0E95D04
:1006A000FE4F8083909326018091C10080628093E9
:1006B000C10004C02091C80524FFECCF0895CF935A
:1006C000DF93C2ECD6E08991811103C0DF91CF9115
:1006D00008950E944303F7CF1092CC0590913806FD
:1006E00097FD03C090E29093CC05882331F0809170
:1006F000CC0590E289278093CC0508958F929F9234
:10070000AF92BF92CF92DF92EF92FF920F931F931F
:10071000CF93DF93CDB7DEB72D970FB6F894DEBF3A
:100720000FBECDBF6B017C01042F20E030E0A9019A
:100730000E94443587FF07C08DE20E944303F7FA09
:10074000F094F7F8F094102F123008F054C000FF26
:100750000AC020E030E040E251E4C701B6010E9447
:10076000A6376B017C0120E030E040E05FE3C70189
:10077000B6010E944F340E94C03510E03AE0832E4B
:10078000912CA12CB12CE12FF0E0611571058105B0
:100790009105E9F581E090E08C0F9D1FE80FF91FAE
:1007A00080E3101708F445C0101309C0E1E0F0E041
:1007B000EC0FFD1FE10FF11D80E380831F5FEE242E
:1007C000E394F12CEC0EFD1EE10EF11C111134C06E
:1007D0002D960FB6F894DEBF0FBECDBFDF91CF913F
:1007E0001F910F91FF90EF90DF90CF90BF90AF904F
:1007F0009F908F90089520E030E048EC52E4C701CC
:10080000B6010E94A6376B017C0112509DCFEE24E9
:10081000E394F12CEC0EFD1EEE0EFF1EA5019401DB
:100820000E94CF38605DF7016083B901CA011F5F84
:10083000AACF1F5F8193B5CF101303C08EE20E9431
:100840004303F70182917F010E9443031150BECF01
:100850002091380640E020FF07C02BE832E441E257
:100860005DE30E94A63741E00C947E032091380698
:1008700043E020FF07C02BE832E441E25DE30E9441
:10088000A63744E00C947E030F931F93CF938C0103
:10089000C0E0F80161917191819191918F010E9465
:1008A0003604C23019F08CE20E944303CF5FC3309C
:1008B00081F7CF911F910F910895CF93DF938436E5
:1008C00058F06AE00E94AF38C0E3C90F6AE00E94A6
:1008D000AF38D0E3D90F04C0C0E0D0E08A30B0F721
:1008E000805D0E944303DD2319F08D2F0E94430396
:1008F000CC2329F08C2FDF91CF910C944303DF910F
:10090000CF910895CF93DF93EC01FE01849121965E
:10091000811103C0DF91CF9108950E944303F5CF69
:1009200085EC91E00C948204CF93C82F8EEC91E07B
:100930000E9482048C2F0E945D04CF910C9490043D
:10094000811104C08AE292E00C9482040C94940415
:10095000CF92DF92EF92FF92CF93DF93D82F6A016D
:100960007B01C22F84E20E9443038D2F0E945D040D
:100970008DE30E9443034C2FC701B6010E947E0302
:10098000DF91CF91FF90EF90DF90CF900C94900487
:10099000CF93DF93D82FC62F84E20E9443038D2F7D
:1009A0000E945D048DE30E9443038C2F0E945D042E
:1009B000DF91CF910C949004EF92FF920F931F93CD
:1009C000CF93DF936091230670E080E00E94C8041B
:1009D0006091260670E081E00E94C80460912406C0
:1009E00070E082E00E94C8046091250670E083E018
:1009F0000E94C8046091380662FB662760F970E0C7
:100A000084E00E94C8046091380666FB662760F99E
:100A100070E085E00E94C80480913806082E000C22
:100A2000990B692F661F6627661F70E086E00E949B
:100A3000C8046091270670E08AE00E94C8044091D3
:100A400028065091290660912A0670912B0623E012
:100A50008BE00E94A80440912C0650912D066091D5
:100A60002E0670912F0623E08CE00E94A80460916E
:100A70003806617070E08DE00E94C804609138060D
:100A800065FB662760F970E084E10E94C80460910C
:100A9000380663FB662760F970E085E10E94C804B0
:100AA000609138066295617070E086E10E94C8042A
:100AB0006091390670E087E10E94C80440913A06CF
:100AC00050913B0660913C0670913D0623E088E121
:100AD0000E94A80440913E0650913F066091400656
:100AE0007091410623E089E10E94A80460914206CA
:100AF000709143068AE10E94C804409144065091D7
:100B00004506609146067091470623E08BE10E94FE
:100B1000A8044091300650913106609132067091E0
:100B2000330620E08EE10E94A804409134065091E3
:100B30003506609136067091370620E08FE10E94FD
:100B4000A80470E060E080E20E94C80484E6F82E09
:100B500010E0C3EFD5E000E0E02EEF0C123011F111
:100B6000133069F11130C9F0488159816A817B8164
:100B700023E08E2D0E94A8040F5F2496033061F7B6
:100B80008AE0F80E1F5F8CE8F812E3CFDF91CF9177
:100B90001F910F91FF90EF9008954C855D856E85B4
:100BA0007F85E6CF20E030E041E655E4688D798D21
:100BB0008A8D9B8D0E944E35AB01BC01D9CF4CA1D3
:100BC0005DA16EA17FA17058D3CF8DE50E94430334
:100BD0000C949004CF93DF93CDB7DEB72C970FB66C
:100BE000F894DEBF0FBECDBF88EC91E00E94820476
:100BF00069ED75E0CE0101960E949802CE01019642
:100C00000E9444048AE30E9443038091EB050E9402
:100C10005D040E94E5052C960FB6F894DEBF0FBE6A
:100C2000CDBFDF91CF910895EAE0F1E0ADECB5E002
:100C30004D915D916D917C911397408351836283B7
:100C4000738314964D915D916D917C9117974483B8
:100C500055836683778318968D919D910D90BC91F5
:100C6000A02D80879187A287B3870895BF92CF92E6
:100C7000DF92EF92FF920F931F93CF93DF937C014C
:100C8000FC0102A513A5D4A5C5A5818980FF33C0A9
:100C90006091EE0570E090E080E00E94F8352AE077
:100CA00037ED43E25CE30E94A6379B01AC01B8013B
:100CB0008D2F9C2F0E94A6378B01D82FC92F20E0A3
:100CC00030E040E85FE3B8018D2F9C2F0E9466372B
:100CD000181624F000E010E0D0E8CFE3B8018D2F23
:100CE0009C2FDF91CF911F910F91FF90EF90DF909C
:100CF000CF90BF90089582FD17C06091ED0570E020
:100D000090E080E00E94F8352AE037ED43E25CE3B2
:100D10000E94A6379B01AC01B8018D2F9C2F0E9429
:100D2000A6378B01D82FC92FF701B6A0C7A0D0A432
:100D3000F1A498014D2F5C2F6B2D7C2D8D2D9F2DB7
:100D40000E94443587FFBBCF0B2D1C2DDD2DCF2DF1
:100D5000B6CF80913D0290911E05981739F02EE292
:100D6000829FC0011124825C9D4F089590E080E035
:100D700008950E94A906892B19F082E00C94540270
:100D800008952F923F924F925F926F927F928F922F
:100D90009F92AF92BF92CF92DF92EF92FF920F930A
:100DA0001F93CF93DF9300D000D0CDB7DEB7009173
:100DB0001E05002309F486C0098339813150398327
:100DC00010913C02131709F466C0C32ED12CEEE239
:100DD0003E9FC00111249C01225C3D4F7901F90125
:100DE00076888788908CA18C628D738D848D958D8B
:100DF0009B01AC010E944F34F701268D378D40A135
:100E000051A10E94A637B62EE72EF82E9B83262FDF
:100E1000372F482F592F672D782D892D9A2D0E9415
:100E2000443587FF03C0B72C7401AB828EE28C9DE2
:100E3000F0018D9DF00D1124E25CFD4F8B2D9E2D58
:100E4000AF2DBB81828B938BA48BB58BF9818F2FB8
:100E5000F11101C080E1FF24FA94F80E30903D02B8
:100E60001F1133C0131102C00E94D402EEE21E9F74
:100E7000C0011124825C9D4F9A838983332433946B
:100E8000310EF0E13F1201C0312C8EE2282E031109
:100E900085C010933C020F900F900F900F90DF9140
:100EA000CF911F910F91FF90EF90DF90CF90BF9067
:100EB000AF909F908F907F906F905F904F903F90FA
:100EC0002F90089520E1298378CF29818EE2289FF1
:100ED00090011124225C3D4F3C832B832EE2E22EB5
:100EE0008F2C912CFE9CC0011124FC01E25CFD4F73
:100EF000FA83E983F11002C090E1F92EFA94F3101D
:100F000002C00E94D402E89CC001E99C900D11240B
:100F10009C01225C3D4F6901F90146885788608C2D
:100F2000718CA301920162897389848995890E94D9
:100F30004435882339F1F601628D738D848D958D4A
:100F40009B01AC010E944F34F601268D378D40A1E4
:100F500051A10E94A637EB81FC8122893389448903
:100F600055890E944F344B015C01AC019B01C301C8
:100F7000B2010E946637F60118165CF4828A938AE1
:100F8000A48AB58A29813A813C832B831F11A8CF7B
:100F90006DCF428A538A648A758AF4CFC32CD12CD0
:100FA000329CC00111249C01225C3D4F7901E981F2
:100FB000FA814288538864887588F9018288938809
:100FC000A488B588A5019401C301B2010E944435EB
:100FD00087FF26C0E981FA81628D738D848D958D9E
:100FE0009B01AC010E944F34E981FA81268D378D37
:100FF00040A151A10E94A637A30192010E944F3443
:101000002B013C01AC019B01C501B4010E94663774
:10101000181634F4F701428A538A648A758A132DAC
:101020002C9CF0012D9CF00D1124E25CFD4F2689D3
:101030003789408D518D62897389848995890E9491
:101040004435811101C0132D3394F0E13F1201C0EA
:10105000312CFA82E9821BCF6F927F928F929F92FE
:10106000AF92BF92CF92DF92EF92FF920F931F93B6
:10107000CF93DF93EB018C015B018CE0A80EB11CD8
:1010800089E9682E96E7792E26E9822E3EE7932E8F
:10109000C990D990E990F99020E030E0A901C7010A
:1010A000B6010E9444358823B9F0A7019601F801E2
:1010B00060817181828193810E944E356B017C0138
:1010C000E894F7F89301A401C701B6010E946637BE
:1010D000181614F0360147010C5F1F4FCA15DB05C7
:1010E000B9F6B301C401DF91CF911F910F91FF9029
:1010F000EF90DF90CF90BF90AF909F908F907F90B8
:101100006F90089593B18091380686FF0BC09E7052
:1011100059F091FB882780F992FD8260987029F040
:10112000846008959095F3CF80E00895EBE6F0E0B9
:101130008081817F8083E8E6F0E080818E7F8083FC
:10114000089584B1817F84B985B18E6085B980911D
:10115000380683FF0BC080916B008E6080936B001C
:101160008091680081608093680008950C949608CF
:101170006DEC75E080E696E00C949802F894F9998D
:10118000FECF92BD81BD81E08FBB20B5862F822727
:10119000082E000C990B50E086239523892B49F0EB
:1011A00084E16F3F11F060BD84E08FBBF99A7894C1
:1011B00008952617E1F360BD84E2F7CF9F92AF92C6
:1011C000BF92CF92DF92EF92FF920F931F93CF9334
:1011D000DF935C018A017B01E40EF51EEB01912C8B
:1011E0006C01C61AD70ACE018C0D9D1D21E091100D
:1011F00007C0292D990C330B232F221F2227221FD2
:101200006991962E920E0E94BE08CE15DF0559F701
:10121000692DC501800F911FDF91CF911F910F9113
:10122000FF90EF90DF90CF90BF90AF909F900C9485
:10123000BE086AE090E080E00E94BE0845E550E00C
:1012400063EF75E081E090E00C94DE08F999FECF41
:1012500092BD81BD81E08FBB80B508959F92AF9212
:10126000BF92CF92DF92EF92FF920F931F93CF9393
:10127000DF935B018A017C01E40EF51EEC01912CE9
:101280006B01C81AD90AC6018C0F9D1F0E9426093E
:1012900021E0911007C0292D990C330B232F221F19
:1012A0002227221F982E920E8993CE15DF0559F71B
:1012B000C501800F911F0E94260921E030E08915A9
:1012C00011F030E020E0C901DF91CF911F910F9123
:1012D000FF90EF90DF90CF90BF90AF909F900895D8
:1012E0009091E705911105C086FF04C0439A1092C2
:1012F000F10508954398FBCFEAE0F1E08CE1DF01CE
:101300001D928A95E9F710923D0210921E0581E028
:101310008093090110923C0208954F925F926F9260
:101320007F92AF92BF92CF92DF92EF92FF920F9394
:101330001F93CF93DF93EC015C012CE0A20EB11C54
:101340008C01C12CD12C7601F80141905190619013
:1013500071908F0120E030E0A901C301B2010E9429
:101360004435882371F0A3019201C301B2010E94A8
:10137000A6379B01AC01C701B6010E944F346B0137
:101380007C010A151B0501F7C701B6010E9445380B
:101390006B017C01AC019B0160E070E080E89FE3A1
:1013A0000E944E352B013C01699179918991999167
:1013B0005E01F4E0AF1AB108A30192010E94A637C2
:1013C000F5016083718382839383C017D10761F72E
:1013D000C701B601DF91CF911F910F91FF90EF9060
:1013E000DF90CF90BF90AF907F906F905F904F90C5
:1013F00008952F923F924F925F926F927F928F92B9
:101400009F92AF92BF92CF92DF92EF92FF920F9393
:101410001F93CF93DF93CDB7DEB7C654D1090FB674
:10142000F894DEBF0FBECDBF2091EA052AA320FDB0
:10143000E1C624702BAB30911E0539AF4EE2349FCC
:10144000C0011124DC01A25CBD4F2396BFAFAEAF3B
:101450002397BAA1B270BCAB40913D024AAF4F5F37
:101460004D8F403109F458C74BAF5EE2ABAD5A9F88
:10147000C0011124FC01E05BFD4F2596FFAFEEAFEC
:10148000259790911F0580912005981709F4B2C601
:101490008091C6059091C705892B09F079C0EBA909
:1014A000EE2309F40FC223962EAD3FAD2397309360
:1014B000C7052093C6054091C6055091C7055A87B8
:1014C0004987452B09F496C610919C0510FF01C26F
:1014D00010929C051092AE051092AF051092B005C7
:1014E0001092B105A985BA855A962D913D914D91DD
:1014F0005C915D9729833A834B835C8360E070E065
:1015000080E09FE30E944E356D837E838F839887B2
:10151000E985FA85468C578C60A071A082889388F3
:10152000A488B588FCA9FF2309F4A1C222E0209376
:10153000AD05A50194010E94A6379B01AC01C30132
:10154000B2010E944E346B017C0120E030E0A90121
:101550000E94443587FF7AC229813A814B815C81A0
:10156000CA01B9010E944F34A30192010E94A6371B
:101570009B01AC01C501B4010E944E340E94453864
:101580006093BA057093BB058093BC059093BD052D
:1015900080914505482F50E05A8B498B86E0849F07
:1015A000F001859FF00D1124EF5DFA4F80919B05AE
:1015B0008483A091C605B091C705BE87AD875E96AE
:1015C000BC91BFA3ED85FE85F78DF8A7AD85BE85DF
:1015D0009096BC91B9A7ED85FE85F1A1FAA720915F
:1015E000A9053091AA054091AB055091AC056FA1BA
:1015F00078A58B2F9F2F0E944E346DAB7EAB8FABA7
:1016000098AF20E030E0A9010E94443587FF04C074
:101610001DAA1EAA1FAA18AE2091B6052D8B3091C7
:10162000B7053E8B4091B8054F8B5091B905588F47
:101630008091BE058E8F9091BF059F8FA091C005B0
:10164000A8A3B091C105B9A3E091C205EBA7F091A1
:10165000C305FCA72091C4052DA73091C5053EA761
:101660003090B2052090B3054091B40527964FAF56
:1016700027975091B50526965FAF26978091AD05C7
:1016800089879091AE059FA7A091AF05A8ABB091B7
:10169000B005B9ABE091B105EAABF091BA05FDAF89
:1016A0002091BB052EAF3091BC053FAF4091BD05E9
:1016B00021964FAF21972BA53CA54DA55EA56E8D1C
:1016C0007F8D88A199A10E944435811159C352E0B0
:1016D0005CAF9FA1998FA8A5AA8FB9A5BB8FEAA5DA
:1016E000EC8F8EE3C82E83ECD82E8EE2E82E89E3B1
:1016F000F82E412C512C3201A70196012BA33CA3BB
:101700004DA35EA35985513009F4F7C3AD85BE855D
:10171000513008F46FC3533009F025C45A962D9107
:101720003D914D915C915D97C701B6010E94A6372E
:101730004B015C012D893E894F89588D632D722D97
:1017400027968FAD279726969FAD26970E944E34F9
:101750009B01AC01C501B4010E94663787FD1AC325
:101760002E8D3F8D48A159A16FA178A589A59AA575
:101770000E944E349B01AC010E944F346B017C01EE
:101780002D893E894F89588D632D722D27968FADF7
:10179000279726969FAD26970E944F349B01AC0158
:1017A000C701B6010E944E356B017C013D882E8831
:1017B000BF892796BFAF2797E88D2696EFAF26976C
:1017C0000E8D1F8DF8A1F98329A12D8331E0398772
:1017D000A7019601C301B2010E944F342B013C01C5
:1017E0002BA13CA14DA15EA10E94443587FF3CC4C2
:1017F000A30192016BA17CA18DA19EA10E944E34F8
:101800006B017C01980149815D816FA578A989A947
:101810009AA90E94443587FDB6C2832D922D279642
:10182000AFAD27972696BFAD26978093B2059093CC
:10183000B305A093B405B093B50539853093AD05D4
:101840002091A5053091A6054091A7055091A805C6
:10185000B80189819D810E94A63769877A878B8725
:101860009C870E942D356B017C016091A1057091D0
:10187000A2058091A3059091A4050E942D354B01EE
:101880005C01A70196010E944E340E94C7356D8706
:101890007E878F87988BA6E089899A89A89FF00117
:1018A000A99FF00D1124EF5DFA4F2D853E85318300
:1018B0002083232B09F008C45CA9552309F404C430
:1018C0008AA195C40E94A9069093C7058093C60576
:1018D000F2CD80919B058F5F853009F480E0809385
:1018E0009B05482F50E091E1949FF001959FF00DEA
:1018F0001124EA5BFA4FA985BA8550969C915097BE
:10190000908BE1E18E9FC001112430E020E0CD906A
:10191000DD90ED90FD90FC01E20FF31FEA5BFA4FC2
:1019200063E0CC0CDD1CEE1CFF1C6A95D1F7C08275
:10193000D182E282F3822C5F3F4F2C30310539F7A0
:10194000A985BA851C966D917D918D919C911F976B
:10195000B1E1B49F9001B59F300D1124F901EA5B0C
:10196000FA4F6B017C0123E0CC0CDD1CEE1CFF1C4C
:101970002A95D1F7C486D586E686F7860E94F63585
:101980006093A1057093A2058093A3059093A4058D
:10199000E985FA85268D378D40A151A10E944E35EB
:1019A0009B01AC012093A5053093A6054093A705A4
:1019B0005093A80560E070E080EA9FE30E944E35F6
:1019C0006093A9057093AA058093AB059093AC052D
:1019D00010929D0510929E0510929F051092A005F1
:1019E000FCA9F11102C013FF20C06091BA057091EB
:1019F000BB058091BC059091BD056093B2057093C5
:101A0000B3058093B4059093B5059B01AC010E948A
:101A1000A637A985BA8552966D937D938D939C9335
:101A20005597177F10939C0555CDE985FA856289F6
:101A30007389848995890E9445386093B2057093B3
:101A4000B3058093B4059093B50544CDC092AE051F
:101A5000D092AF05E092B005F092B1051092BA05B0
:101A60001092BB051092BC051092BD0591CD10924D
:101A7000AD054092BE055092BF056092C0057092C0
:101A8000C1053BA9332309F46AC01092BA0510922C
:101A9000BB051092BC051092BD05C12CD12C76015E
:101AA00089859A850E9436066D877E878F87988BF9
:101AB0009B01AC010E94A63769877A878B879C8738
:101AC000A50194010E94443587FF8BC029853A8582
:101AD0004B855C85C501B4010E944E342D813E8149
:101AE0004F8158850E94A6379B01AC01C301B2010A
:101AF0000E944E346093BE057093BF058093C0056D
:101B00009093C10520E030E0A9010E9444351816E9
:101B10000CF441C0B2E0B093AD0529813A814B810C
:101B20005C81CA01B9010E944F34A30192010E9455
:101B3000A6379B01AC01C501B4010E944E340E943E
:101B400045386093BA057093BB058093BC059093AC
:101B5000BD0580919C05886080939C0519CD49AD99
:101B60005BADC12CD12C7601451741F02596AEAD69
:101B7000BFAD2597CD90DD90ED90FC90C701B601EB
:101B80000E9445386093BA057093BB058093BC05ED
:101B90009093BD0585CFA701960169857A858B85D0
:101BA0009C850E944E342D813E814F8158850E9434
:101BB000A6376093C2057093C3058093C4059093C4
:101BC000C5052D853E854F8558892093B6053093F0
:101BD000B7054093B8055093B90533E03093AD0590
:101BE000D7CCA7019601C501B4010E944E342D81C6
:101BF0003E814F8158850E94A637A30192010E9421
:101C00004F3420E030E040E05FE30E94A637698B6C
:101C10007A8B8B8B9C8B20E030E0A9010E94663789
:101C200018160CF094C0A301920169897A898B89F6
:101C30009C890E94443587FF88C0A7019601698569
:101C40007A858B859C850E944E342D813E814F8103
:101C500058850E94A6379B01AC012093C2053093A2
:101C6000C3054093C4055093C50569897A898B895A
:101C70009C890E9466371816BCF58D859E85AF85B8
:101C8000B8898093B6059093B705A093B805B09333
:101C9000B905A501940169857A858B859C850E948B
:101CA0004435811104C091E09093AD0571CCA5013C
:101CB000940169857A858B859C850E944E342D819F
:101CC0003E814F8158850E94A6379B01AC01C3011C
:101CD000B2010E944E346093BE057093BF0580939D
:101CE000C0059093C10554CC29893A894B895C89F8
:101CF0002093BE053093BF054093C0055093C105A6
:101D00002093C2053093C3054093C4055093C50585
:101D100029813A814B815C81CA01B9010E944F340B
:101D200029893A894B895C890E94A637A7019601C7
:101D30000E944F340E9445386093B6057093B705F2
:101D40008093B8059093B90523CC32E047CF8091BA
:101D5000BA059091BB05A091BC05B091BD0510924C
:101D6000BE051092BF051092C0051092C105809368
:101D7000B6059093B705A093B805B093B90508CC04
:101D800081E08CAFA6CC098F1A8F39813B8F4D81B2
:101D90004C8FB8CC20E030E040E05FE3C501B401F7
:101DA0000E94A6379B01AC01632D722D27968FAD43
:101DB000279726969FAD26970E944E34A70196013D
:101DC0000E94A6379B01AC01698D7A8D8B8D9C8D0D
:101DD0000E944E348B0189839D83A5019401632D5C
:101DE000722D27968FAD279726969FAD26970E9436
:101DF0004E347AC05A962D913D914D915C915D97EC
:101E0000C701B6010E94A6374B015C0120E030E01B
:101E100040E05FE30E94A637232D322D27964FAD79
:101E2000279726965FAD26970E944F34A70196010B
:101E30000E94A6379B01AC01698D7A8D8B8D9C8D9C
:101E40000E944E348B0189839D839B01AC016E8D72
:101E50007F8D88A199A10E9466371816CCF52E8D2A
:101E60003F8D48A159A16FA178A589A59AA50E9487
:101E70004E349B01AC010E944F346B017C012D89D3
:101E80003E894F89588D632D722D27968FAD2797E8
:101E900026969FAD26970E944F349B01AC01C70147
:101EA000B6010E944E356B017C01BCADB9873D88FF
:101EB0002E88EF892796EFAF2797F88D2696FFAFEC
:101EC00026970E8D1F8D28A1298339A13D8380CCB3
:101ED000A5019401632D722D27968FAD2797269625
:101EE0009FAD26970E944F34362E272E27968FAF10
:101EF000279726969FAF26976BCC2D893E894F89D1
:101F0000588DC701B6010E94A6379B01AC01698DAF
:101F10007A8D8B8D9C8D0E944E348B0189839D839D
:101F20002BA53CA54DA55EA50E94443587FF50CC4E
:101F30002BA53CA54DA55EA5698D7A8D8B8D9C8DBD
:101F40000E944E342D893E894F89588D0E944E350E
:101F50006B017C010BA51CA54DA549835EA55D8386
:101F600082E0898735CC5A962D913D914D915C91B7
:101F70005D97C701B6010E94A6374B015C01AC0119
:101F80009B01632D722D27968FAD279726969FADC7
:101F900026970E946637181664F520E030E040E08E
:101FA0005FE3C501B4010E94A6379B01AC01632D1C
:101FB000722D27968FAD279726969FAD26970E9464
:101FC0004E34A70196010E94A6379B01AC01698D92
:101FD0007A8D8B8D9C8D0E944E348B0189839D83DD
:101FE0002FA538A949A95AA90E94663718160CF4DA
:101FF000F4CE2FA538A949A95AA9698D7A8D8B8D60
:102000009C8D0E944E349B01AC010E944F346B01A9
:102010007C012DAD3EAD4FAD21965FAD2197632D77
:10202000722D27968FAD279726969FAD26970E94F3
:102030004F349B01AC01C701B6010E944E356B01C4
:102040007C013DAC2EACBFAD2796BFAF2797219644
:10205000EFAD21972696EFAF26970FA518A9F9A9FE
:10206000F9832AA92D83B4CB2DA93EA94FA958AD38
:10207000B80189819D810E94663718168CF42EE381
:1020800033EC4EE259E36BA17CA18DA19EA10E948D
:102090004F346BA37CA38DA39EA3A3019201AECB6F
:1020A000832D922D2796AFAD27972696BFAD269705
:1020B0008093B2059093B305A093B405B093B50592
:1020C00049854093AD05BCCB20919D0530919E057F
:1020D00040919F055091A005C301B2010E944F3469
:1020E0002B013C0129853A854B855C85C501B401EE
:1020F0000E944E349B01AC01C301B2010E944E35D7
:102100004B015C0120EC31EE44E65EE40E94A63710
:102110000E942D350E94C735603DA7E07A078105F2
:10212000910508F081C046E029893A89429FF00173
:10213000439FF00D1124EF5DFA4F158246E0298987
:102140003A89429FF001439FF00D1124EF5DFA4F51
:102150007383628380912005809345058F5F86306D
:1021600009F4BBC080932005E091C605F091C70536
:10217000C801A981BD81868F978FA0A3B1A3C0920A
:10218000A105D092A205E092A305F092A4052985AD
:102190003A854B855C85C701B6010E944E34A50186
:1021A00094010E94A63760939D0570939E058093CD
:1021B0009F059093A0052091AE053091AF05409109
:1021C000B0055091B105B80189819D810E944435C7
:1021D000811157C920E030E0A901B80189819D81B2
:1021E0000E94663718160CF07BC08091EA0581606A
:1021F0008093EA05CA5BDF4F0FB6F894DEBF0FBECF
:10220000CDBFDF91CF911F910F91FF90EF90DF90A5
:10221000CF90BF90AF909F908F907F906F905F9086
:102220004F903F902F900895603A5FE075078105C9
:102230009105A0F526E0A989BA892A9FF0012B9F74
:10224000F00D1124EF5DFA4F31E0358346E0298926
:102250003A89429FF001439FF00D1124EF5DFA4F40
:102260002581022E04C096958795779567950A94E7
:10227000D2F7AD85BE8502C0AA0FBB1F2A95E2F733
:10228000B183A08361157105B1E08B07910508F456
:1022900055CF8FEF9FEF938382835CCF60344FE104
:1022A00074078105910560F426E0A989BA892A9FFF
:1022B000F0012B9FF00D1124EF5DFA4F32E0C5CFF6
:1022C000A6E049895A89A49FF001A59FF00D112429
:1022D000EF5DFA4FB3E0B583B9CF1092200544CF3C
:1022E0009BA99111EDCA1092C7051092C605A9AD20
:1022F000BAADAB1709F4C5C8ED8DE03109F41D8EF8
:1023000080913C02FAADF81303C02D8D20933C025E
:102310003D8D30933D02A0C81BAEA7C81BB818B8AE
:1023200080916F008D7F80936F0080918100887F06
:10233000816080938100109218028091260690910E
:10234000E6058F3FA1F42091C905211110C09038F6
:1023500081F490E0019778F481E09091380692FF43
:1023600002C091E08927882369F0289A0895943063
:1023700081F780E0F2CFEFE9FFE03197F1F700C09D
:102380000000E8CF28980895CF93DF930E948E1124
:10239000EBE9F5E08BE2DF011D928A95E9F7C9E1EF
:1023A000D2E083E2FE0111928A95E9F71092C70507
:1023B0001092C60510921F051092450581E080938A
:1023C0002005109218020E94F802209117022F8710
:1023D000E6E1F2E09081937E80911502982B908344
:1023E000E4E1F2E080818F71822B8083DF91CF91D5
:1023F00008958091C80584FD1BC080E10E945402AD
:102400002C9843989091E605892F8C7221F4809145
:10241000EA05867069F0943049F48091C90581110C
:1024200003C086E00E9444020C948E1183E0FACF30
:1024300008952F923F924F925F926F927F928F9268
:102440009F92AF92BF92CF92DF92EF92FF920F9343
:102450001F93CF93DF93CDB7DEB7A4970FB6F89451
:10246000DEBF0FBECDBF1091C905112349F181E038
:102470008093E60583E691E00E948204812F0E940A
:102480005D040E94900485EF91E00197E1F5115001
:10249000123088F486EC92E00E94820484EB92E091
:1024A0000E9482040E94E50580E10E944A02809118
:1024B000C80584FFFCCF8FB7F8941092C9058FBF71
:1024C0001091C805112309F481C214FF23C081E0D3
:1024D0008093E705A4960FB6F894DEBF0FBECDBF7C
:1024E000DF91CF911F910F91FF90EF90DF90CF90F0
:1024F000BF90AF909F908F907F906F905F904F9024
:102500003F902F900895EFE9FFE03197F1F700C079
:102510000000BBCF10FFA6C08CE0EDECF5E0DE01C3
:10252000599601900D928A95E1F7BE01675E7F4F43
:10253000CE010D960E9498028CE30E944303809185
:10254000E605883009F408C108F0E3C0813009F4D9
:102550000CC108F4FCC0823009F40AC1843009F4CB
:1025600001C180912706F82FF1709F2E80FF15C1C1
:102570008091F205882309F410C18EE891E00E9451
:102580008204CE010D960E9444048091270681FFAB
:102590001DC082E891E00E94820490911E05809106
:1025A0003D02981708F448C1815F891B0E945D04B1
:1025B0008CE20E94430380911202909113029817BB
:1025C00008F43CC18058891B0E945D048EE791E0AD
:1025D0000E9482048091E6058C7709F431C16091F4
:1025E000B2057091B3058091B4059091B5050E9434
:1025F00028040E948208082FF090CC058F29D1F082
:1026000089E791E00E948204FF2019F080E50E9492
:102610004303002379F000FF03C088E50E944303D1
:1026200001FF03C089E50E94430302FF03C08AE55E
:102630000E9443038091F205882309F405C181506B
:102640008093F2050091F105002309F416C10150B1
:102650000093F1058EE30E9443030E94900481E001
:102660000E944A02812F887E09F460C18091E605AC
:10267000982F937009F049C18872A9F08091E805FC
:10268000807C89F40E94D40282E08093EA058091E4
:10269000E605803241F480E217FD0CC08091E80528
:1026A00080688093E8058091E605811103C091E080
:1026B0009093E80516FF07C085FD05C09091E805D9
:1026C00090649093E80513FF05C0807E19F480E1C3
:1026D0008093E60515FF19C186EC92E00E94820402
:1026E00082E792E00E9482040E94E5058091E8055D
:1026F00087FD06C19091E605903409F0FEC083FF86
:1027000004C0837E82608093E80580E48093E605C0
:10271000F7C0803221F198F4803109F022CF809106
:10272000E80587FD1CC086EB91E00E948204809141
:10273000E80580FF2EC080E30E94430312CF80345F
:10274000D1F0803809F00DCF85E991E002C080EC2E
:1027500091E00E94820405CF8CEB91E0FACF82EBEE
:1027600091E0F7CF8DEA91E0F4CF87EA91E0F1CFE5
:1027700081EA91E0EECF8BE991E00E9482048091A2
:10278000E80583FF02C083E3D7CF82FF04C085FF43
:10279000D2CF81E3D1CF82E3CFCF40908406509057
:1027A000850660908606709087066CE6A62E66E029
:1027B000B62E9E012F5F3F4F6901CE010D967C0121
:1027C00000E0F50161917191819191915F01208506
:1027D0003185428553850E944F34F6016193719390
:1027E000819391936F01023041F4A30192010E9401
:1027F0004F3469877A878B879C87911012C0F601C6
:1028000034972081318142815381F7016081718148
:10281000828193810E944E34F701608371838283A9
:1028200093830F5FF4E0EF0EF11C033051F691102B
:10283000A4CE87E891E0A3CE8150B7CE8150C3CE1D
:1028400060E070E0CB01D3CE8091E6058C7799F003
:102850008DE18093F2058091F105811103C081E043
:102860008093F10583E791E00E948204CE010196F6
:102870000E944404E7CE89E0ECCF8091E6058C7796
:10288000A9F183E18093F1058EE691E00E94820434
:102890008091ED050E945D048CE20E9443038091CB
:1028A000EE050E945D048CE20E9443038091EF05D7
:1028B0000E945D042C9B1CC02D9B1CC052E0F52E79
:1028C000439BC7C100E48AE691E00E948204FF2096
:1028D00031F021E083E5F21283E40E9443030023F8
:1028E00009F4B8CE86E40E944303B4CE89E0CACF8F
:1028F000F12CE6CFFF24F394E3CF903809F005CF15
:102900008091E80580628093E80517FF0CC08091F4
:10291000E605813029F48091E80585608093E8051B
:1029200080E88093E60588EE0E944A0211FF28C0E5
:10293000812F887611F58091E605803441F48091ED
:10294000E80585FD04C084FFE2C01092E605809191
:10295000E605882309F4E1C084FF0FC09091E805E3
:1029600090FF0BC0803109F0D8C08091F00588231A
:1029700009F4D3C088608093F00582E00E944A0287
:1029800012FF24C09091E8058091E605807D09F44E
:10299000DDC08091E9058111D9C097FDD9C00E94A1
:1029A000D40280913D0280933C020E94C106809136
:1029B000EA0581FF05C09091E80591609093E805D4
:1029C000897F8093EA0584E00E944A029091CA05BB
:1029D000992309F44CC08FB7F8941092CA058FBFA1
:1029E0004091ED05842F90FD84E691FD865F92FD78
:1029F0008A5093FD8F5F94FD8150893C08F088ECEC
:102A00008A3008F48AE03091EE05232F95FD24E604
:102A100096FD22E397FD29E1481302C0231739F1FF
:102A20008093ED052093EE051092F10570903D0224
:102A300060901E05172D89E9282E96E7392E26E984
:102A4000422E3EE7532E4EE2842E16119CC0C10149
:102A5000D2018093220190932301A0932401B0938B
:102A600025010E94D40270923C020E94C10610917E
:102A7000CB05112309F443C08FB7F8941092CB050E
:102A80008FBF9091EF05892F10FD84E611FD865FC1
:102A900012FD8A5013FD8F5F14FD8150893C08F0B0
:102AA00088EC8A3008F48AE0981761F09091E60586
:102AB0008093EF059111C1C0809151060E942E03B1
:102AC0001092F1058091E60515FF09C0803139F4B7
:102AD0009091F0059111B7C092E09093F005107CB1
:102AE00071F0882311F0887351F01091500616FF91
:102AF000AEC01F7B812F0E947009109350068091F9
:102B0000E6058C7F09F4E6CC0E94F909E3CC82FF4C
:102B10001ECF88608093E8051ACF1092EA050E94C4
:102B2000A906892B71F08091E80586FD0AC01092F4
:102B3000E80588E08093E6050E94F9090E941503E4
:102B40001CCF1092E8051092E60517CF97FF0AC038
:102B50001092EA050E947C090E94C4110E94B808E4
:102B60000E9414068091E80585FF08C08F77816078
:102B70008093E80580E48093E60525CF1092E80570
:102B80001092E60520CFA12EB12C189DC001112472
:102B9000825C9D4F0E943606962EC72ED82E092F96
:102BA0009101A2010E9466378A9C70018B9CF00CF7
:102BB00011241816ACF5C701825C9D4F7C01910170
:102BC000A201B101C2010E94A637F701668B778B83
:102BD000808F918F8A9CC0018B9C900D11249C0149
:102BE000225C3D4F7901F90122A033A044A055A0F9
:102BF000A201910166897789808D918D0E94663747
:102C000018162CF4F701268A378A408E518E1F5FE2
:102C1000103109F410E0292C3C2C4D2C502E15CFEE
:102C20009701225C3D4F7901292D3C2D4D2D502FD0
:102C3000692D7C2D8D2D902FC6CF8091EA0588605F
:102C40008093EA053DCF90FF4ACF946046CF106451
:102C500051CFF11038CEFECC1F93CF93DF93142FBA
:102C600020E030E040EA51E40E94A6370E942D3572
:102C70000E94C735EB012097C9F08091E7058111CB
:102C800015C011110DC00E945A162FEF80E792E077
:102C9000215080409040E1F700C000002197EBCF29
:102CA0000E9419128091E80581FFEFCFDF91CF914B
:102CB0001F9108951F93CF93DF930E941912809163
:102CC000E805882309F453C00E94A906009771F50E
:102CD0008091510690915006892BD82FD07311E026
:102CE000C82FC07C8091E805882309F440C09091EA
:102CF000E70591113CC080FF16C09091E605292F91
:102D0000207C09F47BC082FD1AC01092F00580E09F
:102D10000E942E0380E00E9470098091E8058D7F5B
:102D200084608093E8050E941912DCCFFC01918930
:102D30009073439902C080E0CFCF80E4CDCF90382C
:102D4000E9F486EC92E00E9482048FE292E00E9415
:102D500082040E94E50580E00E942E0380E00E942C
:102D600070090E948E118091E705882321F0DF9180
:102D7000CF911F9108950E941912F5CF903419F444
:102D80008F7D8093E8058091E80583FFCCCF9091FB
:102D90005106992359F081FD09C08091380681FFC1
:102DA00022C08091EA0588608093EA0580915006F0
:102DB000882371F08091E80581FD0AC08C2F0E9464
:102DC000700941E060E070E080E89FE30E942C160B
:102DD0008091E80581FDA7CF80618093E80582E0BE
:102DE0000E945402A0CF8D2F0E942E0341E060E08C
:102DF00070E080E890E40E942C16D8CF8091F00516
:102E00008823A1F181FF0AC080915106882339F1FE
:102E100080E00E942E031093F00585CF8C7009F49A
:102E200082CF80915106882399F086EC92E00E942F
:102E3000820488E392E00E9482040E94E50580916A
:102E4000380681FF0FC08091EA0588608093EA050B
:102E50008091F00583FF03C082E00E94540210922B
:102E6000F00561CF8D2F0E942E03F2CF8091EA05ED
:102E700083FF59CF8D2F0E942E038091EA05877F13
:102E80008093EA0550CF0E94B9060E945A1680919D
:102E9000E705811108C00E94A906892BB1F780912E
:102EA000E605883091F30895CF93DF9391E5899FEC
:102EB000E0011124DD5F40E550E0BE0182EC96E0C8
:102EC0000E942E09892B79F41092C2060E944317A2
:102ED00040E550E062EC76E0CE010E94DE0880E042
:102EE000DF91CF91089581E0FBCF0E9443171092AC
:102EF000F2050895CF939091E605923039F0C82FEE
:102F00000E9443178C2FCF910C942E03CF910895DC
:102F10000F931F93CF93C82F8B010E9443172DE06F
:102F2000C29FC00111244CE050E0B8019E5FCF91D8
:102F30001F910F910C94DE081F93CF93DF93182FEE
:102F4000EB018DE0189FB00111247E5F4CE050E052
:102F5000CE010E942E09892B71F48CE0FE011192A2
:102F60008A95E9F7BE01812F0E94881780E0DF91E2
:102F7000CF911F91089581E0FACFEF92FF920F93C6
:102F80001F93CF93DF93CDB7DEB72C970FB6F8948E
:102F9000DEBF0FBECDBF182F80FF0BC085E5E5ED6E
:102FA000F1E0A3EFB5E005900D928A95E1F70E945C
:102FB000190911FF10C0CE0101967C018CE0F701C8
:102FC00011928A95E9F700E0B701802F0E948817D7
:102FD0000F5F0830C9F712FF14C060E080E093E093
:102FE0000E94BE0860E081E093E00E94BE0860E0BD
:102FF00081E593E00E94BE0860E082E593E00E94D4
:10300000BE0813FF0AC060E08EEA93E00E94BE088B
:1030100060E08FEA93E00E94BE082C960FB6F89409
:10302000DEBF0FBECDBFDF91CF911F910F91FF90FB
:10303000EF9008952F923F924F925F926F927F92FE
:103040008F929F92AF92BF92CF92DF92EF92FF92B8
:103050000F931F93CF93DF93CDB7DEB7C254D1093F
:103060000FB6F894DEBF0FBECDBF3B0100911E0529
:10307000202E312C2EE2029FA0011124BA01625CA5
:103080007D4F7AAF69AFFB0111922A95E9F7F30101
:103090002085FB01218B21FFF0C02CE0EDECF5E059
:1030A000DE01599601900D922A95E1F789AB9AAB12
:1030B00023EF35E021963FAF2EAF2197BE01635F2E
:1030C0007F4F7EAF6DAFCE0149969CAF8BAFE9AD20
:1030D000FAADF8AFEFAB9E012B5D3F4F3CAB2BAB96
:1030E0003EAB2DAB10E08EE2829D2001839D500C03
:1030F0001124B201625C7D4F2B01CB010C9623960B
:103100009FAF8EAF239790E1490E511CE9A9FAA910
:103110006191719181919191FAABE9AB2196EEADFC
:10312000FFAD219781909190A190B1902196FFAF32
:10313000EEAF2197A50194010E94A6370E94733734
:10314000EDADFEAD6193719381939193FEAFEDAFC1
:10315000EBADFCADC190D190E190F190FCAFEBAF45
:103160006C197D098E099F099B01AC0197FF07C06F
:1031700022273327A901261B370B480B590BEFA930
:10318000F8AD2193319341935193F8AFEFAB239670
:10319000EEADFFAD2397C080D180E280F380C216F0
:1031A000D306E406F50610F469017A012396EEAD24
:1031B000FFAD2397C082D182E282F3820E94F8356C
:1031C000A50194010E944E35EDA9FEA9619371936A
:1031D00081939193FEABEDAB20E030E0A9010E941A
:1031E000443587FF0BC090E2112321F090E81130A5
:1031F00009F490E4F2018081892B80831F5F1330F2
:1032000009F084CF80E0CD28CE28CF2809F4CBC0A8
:10321000CE0185960E948D094B015C012EE2229D14
:10322000C001239D900D11249C01225C3D4F79012A
:10323000F901868E978EA0A2B1A2BE016B5D7F4F71
:103240008BE096E00E942C08F701628F738F848FC9
:10325000958FBE016B5D7F4F8FEF95E00E942C082C
:10326000F70166A377A380A791A7118910FF09C072
:1032700062A773A784A795A710C02CE0EAE0F1E04D
:103280000FCFF301208131814281538113FDA5C00D
:10329000F70122A733A744A755A780913D0208173D
:1032A00011F011FFA0C08EE2829DF001839DF00D10
:1032B0001124E25CFD4F128A138A148A158A12A225
:1032C00013A214A215A28EE2829D8001839D100D8F
:1032D0001124025C1D4FF801818981FD63C089AD15
:1032E0009AAD0E9436066B017C018090220190907D
:1032F0002301A0902401B0902501AC019B01C501E0
:10330000B4010E94443587FF36C1A5019401C5016F
:10331000B4010E94A637F801668B778B808F918F5E
:103320008EE2829D8001839D100D1124025C1D4F51
:10333000F80182A093A0A4A0B5A0A501940166897C
:103340007789808D918D0E94663718162CF4F801CC
:10335000868A978AA08EB18EC0922201D0922301D4
:10336000E0922401F09225018CE0FE01B596A6E1E1
:10337000B1E001900D928A95E1F78CE0FE013D9657
:10338000AAE0B1E001900D928A95E1F780910901E0
:1033900080931E058F5F803109F480E080930901DE
:1033A0000E94C10681E0CE5BDF4F0FB6F894DEBF0E
:1033B0000FBECDBFDF91CF911F910F91FF90EF9086
:1033C000DF90CF90BF90AF909F908F907F906F9045
:1033D0005F904F903F902F900895C501B4010E94D7
:1033E000A637F70145CF26E131E03AAB29AB8E0194
:1033F0000F5F1F4F6BA97CA9645F7F4F7CAF6BAFE2
:10340000C12CD12C76010DAB1FABE9A9FAA9819093
:103410009190A190B190FAABE9ABEBA9FCA94190D6
:10342000519061907190FCABEBABA3019201C5018F
:10343000B4010E94A6379B01AC01C701B6010E94EE
:103440004E346B017C01A5019401C301B2010E94BD
:103450004E34F80161937193819391938F012BAD59
:103460003CAD6BA97CA92617370779F62FEE3FEF05
:103470004FE75FE3C701B6010E94663718164CF4A8
:103480008EE2829DF001839DF00D1124E25CFD4FE0
:1034900016CF2FEE3FEF4FE75FEBC701B6010E945B
:1034A000443587FF11C08EE2829DF001839DF00DAF
:1034B0001124E25CFD4F89E996E7A6E9BEE782A305
:1034C00093A3A4A3B5A3FFCE8DA99FA90E948D09A4
:1034D0006DA97FA98BE096E00E942C084B015C014E
:1034E000A701960160E070E080E89FE30E944E34FF
:1034F00020E030E040E05FE30E94A6370E944538BC
:103500006B017C01209128063091290640912A0602
:1035100050912B06C501B4010E94A637A701960160
:103520000E94A6374B015C01A701960160E070E0A4
:1035300080E89FE30E944E349B01AC01C501B401B9
:103540000E944E356B017C0120E030E0A9010E9411
:10355000443587FF03C0C12CD12C76018EE2829DB9
:10356000F001839DF00D1124E25CFD4FC2A2D3A2B5
:10357000E4A2F5A2A8CEA7019601C701B601C9CE63
:10358000FF920F931F93CF93DF938C01EB018091F8
:10359000380685FF23C0F090E60580E2F81611F1A9
:1035A000C8010E945D028823C9F081E08093E9058B
:1035B00088E0F8120CC00E9454020E945A168091B2
:1035C000E70581110BC08091E6058111F6CF0E94BD
:1035D000F91182E00E9444020E945A168091E60589
:1035E000823021F10E945A168091E70581111EC098
:1035F00090913D0280910901981303C00E94B90681
:10360000F1CFBE01C8010E941A1881110FC080912C
:10361000380681FF0BC0888584FF08C080E1DF91F8
:10362000CF911F910F91FF900C947A17DF91CF915A
:103630001F910F91FF9008952F923F924F925F92AA
:103640006F927F928F929F92AF92BF92CF92DF92B2
:10365000EF92FF920F931F93CF93DF93CDB7DEB717
:10366000CC54D1090FB6F894DEBF0FBECDBFE8E849
:10367000F6E08AE3DF011D928A95E9F78BE0E8E442
:10368000F6E0A9E8B6E001900D928A95E1F7809105
:10369000C2068432A1F01A8E1BA2312C212C1EA648
:1036A0001DA610E01B8E1F8EEE24E394F12CAAE0E1
:1036B000AA2EB12CB1E68B2EB3E09B2E4EC181E039
:1036C0008093890610928A0683E08A8FB1E0BBA3BB
:1036D000E4CF9FEB9D0D9A3110F00C9491288F5FF1
:1036E0008A8FBE016A5E7F4FCE014A960E94850195
:1036F000882311F40C9494284E885F88688C798C08
:10370000C301B2010E9489380E94C735062F70E0BC
:1037100090E080E00E94F8359B01AC01C301B2014A
:103720000E944E3420E030E048EC52E40E94A6377C
:103730000E9413380E94C735CB01E7E4DE1629F159
:10374000FDE4DF1609F465C1EAEBED0DE53108F0A3
:103750002CC00E2E000CFF0BE055F44E0C94F138EB
:10376000521DD51BD51B7F1D8A1D951DA01DD51B68
:10377000A41DD51BB21DD51BBC1DC61DD01DD51B40
:10378000D51BD51BE01DED1DFA1D083209F4DDC067
:1037900030F5043160F4013108F098C0043009F4C8
:1037A00074C0B0F00A3009F468C084E196C00C31EE
:1037B00009F463C040F40631C0F725E1201B2093D3
:1037C0008B0626E087C00E3109F457C0063269F730
:1037D0004F8D41110C949728A2E0AF8F28C00D3374
:1037E00009F4AEC0E0F4053309F44FC088F40B329D
:1037F00011F00133D1F6BF8DB1110C94972801332C
:1038000009F095C010928E06E3E0EF8F28E04FC0DC
:103810000C3358F6065300938F0629E05BC00C3535
:1038200008F50A3508F073C0003509F0BECF0093E3
:10383000890621E0063209F04DC08431910551F02E
:103840008E31910539F08832910521F0823391054E
:1038500009F0ABCFB5010E94BB386657609389066B
:1038600021E025C00C3549F00F3508F09ECF2EE53C
:10387000201B20938A0625E02DC0009731F42F8D60
:1038800021110C94972831E03F8F00938806202F58
:103890002D7F2C3119F020E00C35E1F4009719F060
:1038A0000A9709F082CF600F6093880620E0C70175
:1038B00002C0880F991F2A95E2F72DA53EA528235F
:1038C0003923232B09F443C085E107C0015100933C
:1038D0008D0622E0892B59F387E1C45BDF4F0FB6D9
:1038E000F894DEBF0FBECDBFDF91CF911F910F9136
:1038F000FF90EF90DF90CF90BF90AF909F908F9010
:103900007F906F905F904F903F902F900895892BFC
:1039100029F40A5500938C0623E0C9CF6A3071055B
:1039200009F043CF0A3509F440CF24E0C0CF0A970D
:1039300009F03BCFF1E0F0938E0623E02F8F66CFA6
:10394000892B09F032CF2AE0B2CF27E0C3CFADA553
:10395000BEA5A82BB92BBEA7ADA78A8DE82FF0E096
:10396000EE53F94FD080D110B4CEBB8DBB2329F0DC
:10397000EF8DE11102C0F2E0FF8F25FE0FC08091B4
:10398000A5069091A606A091A706B091A806813839
:103990009649A849B10514F00C94A3283BA1332300
:1039A00009F435C120FE45C180918B068130B1F408
:1039B00023E333E34BEC51E4609194067091950658
:1039C00080919606909197060E94A6376093940680
:1039D00070939506809396069093970630FC10C0DE
:1039E0008091530690915406A0915506B0915606C9
:1039F0008093B1069093B206A093B306B093B40639
:103A000080918806843009F02FC126FC2BC18CE1FF
:103A100064CF892B09F060CF063050F4033098F062
:103A20000430D9F080E10530C9F41092920618C034
:103A3000083008F4BACE0A3048F10E3109F0B5CE9C
:103A40000093900604C0002321F00130C9F78BE0F9
:103A500008C0B3E0B0939006FACF80E2809392065C
:103A60008CE0F70102C0EE0FFF1F8A95E2F7CF014D
:103A70002DA53EA52E233923232B09F025CF2DA5D7
:103A80003EA52E2B392B3EA72DA767CF093039F045
:103A9000809191068064809391068DE0E2CF109230
:103AA0009106FBCF4092940650929506609296063E
:103AB0007092970680E06701082E02C0CC0CDD1CD6
:103AC0000A94E2F7960122213321232B11F00C9462
:103AD0009D28D40102C0B595A7958A95E2F7A0FF6D
:103AE0000BC020E030E0A901C301B2010E944435BF
:103AF00087FF02C00C94A0282C283D282ECF40928E
:103B000098065092990660929A0670929B061160F0
:103B100081E0D1CF40929C0650929D0660929E0615
:103B200070929F06126082E0C6CF4092A00650922B
:103B3000A1066092A2067092A306146083E0BBCF38
:103B40000093A40684E0B7CFC301B2010E94C03540
:103B50006093A5067093A6068093A7069093A80687
:103B600085E0A9CF4092A9065092AA066092AB06C2
:103B70007092AC0686E09FCF4092AD065092AE06A2
:103B80006092AF067092B00687E095CF4092B10682
:103B90005092B2066092B3067092B40688E08BCF62
:103BA00020E030E04FE753E4C301B2010E946637E2
:103BB000181614F40C949A280093B50689E07BCF6C
:103BC0004092B6065092B7066092B8067092B90657
:103BD0003B8D31603B8F8AE06ECF4092BA065092A7
:103BE000BB066092BC067092BD064B8D42604B8F47
:103BF0008BE061CF4092BE065092BF066092C00635
:103C00007092C1068B8D84608B8F8CE054CF809135
:103C10008A06813081F44F8D423009F0DFCE8091E9
:103C20008906803509F4DACE882309F4D7CE20FC42
:103C3000D5CE86E152CE809149068111CFCE20FCAF
:103C4000B3CE8091570690915806A0915906B09135
:103C50005A068093940690939506A0939606B09387
:103C60009706BCCEE89426F880918D06882359F0FB
:103C7000813009F4BBC022961FAE2297A2E0ABAF01
:103C8000B1E0B9AF07C082E022968FAF229791E0F2
:103C90009BAF19AE80918B06813071F5E8E8CE2E8E
:103CA000E6E0DE2EF12CE12C2B8DA22EB12CC501ED
:103CB0000E2C02C0959587950A94E2F780FF12C0FA
:103CC00023E333E34BEC51E4D6019E966D917D9155
:103CD0008D919C91D1970E94A637F60166A777A790
:103CE00080AB91ABFFEFEF1AFF0A24E0C20ED11CAC
:103CF00033E0E316F104D9F64F8D433049F4809157
:103D00008E06813029F48B8D843011F00C94A62816
:103D10008CE0ECE6F6E0DE01119601900D928A95BA
:103D2000E1F7ADA5BEA5B1FD69C0009188060A30D6
:103D300009F478C00C3509F419C19F8D933009F44A
:103D40003FC0AB8DAA23E1F1B0918C06BFA3809157
:103D5000840690918506A0918606B091870689A772
:103D60009AA7ABA7BCA798E4A92E96E0B92E28E89D
:103D7000C22E26E0D22EF12CE12C9B8D892E912C87
:103D8000C4010E2C02C0959587950A94E2F780FD38
:103D90005DC1F501808D918DA28DB38DF60186A751
:103DA00097A7A0ABB1ABFFEFEF1AFF0A24E0A20E7A
:103DB000B11C34E0C30ED11C43E0E416F10401F75A
:103DC0000E3109F494C1053309F4B8C168E976E00D
:103DD00086E00C3109F02DC10E949C17882301F167
:103DE0008B8D811188C119A61F8EA9C0E1E0229692
:103DF000EFAF22971BAEF2E0F9AF4CCF80918F0668
:103E0000873010F08DE169CD90914E06891709F445
:103E10008CCFBE016F5F7F4F0E949C17811185CFB1
:103E200087E05BCDBB8DB11102C08AE156CDC101E7
:103E300080759927892B09F4EACD6091A9067091C4
:103E4000AA068091AB069091AC060E9489380E9428
:103E5000C7356730B8F68091A406843129F08230E6
:103E600009F0A3CC27FCA1CC662309F474C06150EF
:103E700069A768E976E089A50E949C17882381F2EA
:103E80000091A406409084065090850660908606B6
:103E90007090870678E8C72E76E0D72EF12CE12CBB
:103EA0003B8D232F30E038A72FA38FA198A50E2C90
:103EB00002C0959587950A94E2F780FF33C0D6013A
:103EC0009E968D909D90AD90BC90D197043109F055
:103ED00046C0F701EE0FFF1FEE0FFF1FE85BF94F23
:103EE00020A931A942A953A9608D718D828D938D2E
:103EF0000E944E34A50194010E944E34F601608B5D
:103F0000718B828B938BF2E0EF120CC0A3019201B4
:103F10000E944E346093A0067093A1068093A2067F
:103F20009093A306BFEFEB1AFB0AE4E0CE0ED11C80
:103F3000F3E0EF16F10409F0B8CF2FEA22228091C6
:103F400089068FA3803509F000C19B8D992309F460
:103F500006C18FE1C2CCE0918F06E9A78ACF5096C7
:103F60008D929D92AD92BC925397DCCF3B8D3323C3
:103F700009F45BCF409084065090850660908606D9
:103F80007090870648E4842E46E0942ECE01019678
:103F90007C0158E8A52E56E0B52ED12CC12CA32FBC
:103FA000B0E0B8A7AFA38FA198A50C2C02C095953F
:103FB00087950A94E2F780FF3EC0F70120813181A6
:103FC00042815381D40158966D917D918D919C9140
:103FD0005B970E944E34F50126A537A540A951A94B
:103FE0000E944E34D5019E966D937D938D939C9344
:103FF000D197B2E0CB120CC0A30192010E944E34C3
:104000006093BE067093BF068093C0069093C1066E
:10401000FFEFCF1ADF0A24E0820E911C34E0E30E9A
:10402000F11C44E0A40EB11C83E0C816D10409F0D1
:10403000BACF19A684CFF40180A991A9A2A9B3A9E6
:10404000F50186A797A7A0ABB1ABE2CF053309F482
:10405000AACED6019E964D905D906D907C90D197A2
:10406000BFA1B11133C0F701EE0FFF1FEE0FFF1F0D
:1040700021E030E02C0F3D1FE20FF31FD501D09659
:104080002D913D914D915C91D39760817181828199
:1040900093810E944F34A30192010E944F34F60194
:1040A00066A777A780AB91ABF2E0EF127CCE29A593
:1040B0003AA54BA55CA50E944F346093BE06709351
:1040C000BF068093C0069093C1066DCEA3019201F6
:1040D000D50158966D917D918D919C915B970E9431
:1040E0004F34F60166A777A780AB91AB5CCE68E949
:1040F00076E087E071CEA8E4B6E0E8E8F6E090E08C
:1041000080E04B8D242F30E0A901082E02C0559588
:1041100047950A94E2F740FD0AC058964D915D918B
:104120006D917C915B97408B518B628B738B019669
:10413000149634968330910539F77BCF80918906A8
:10414000823008F476CF8EE1C8CBAF8DA23039F43F
:10415000BFA1B11171C0EB8DEE2309F48BC02BA16F
:104160002170EBA1C101E0FFD6C28E7DFF8DF11160
:10417000937E892B11F00C94AF288E01035F1F4FA3
:1041800089E0D8011D928A95E9F7222309F4C6C275
:104190008DA59EA5867B892B09F0E4C780918806B2
:1041A000853311F08111DEC780915306909154063A
:1041B000A0915506B0915606898B9A8BAB8BBC8B20
:1041C0008091510690915006892B40919406509110
:1041D000950660919606709197064D875E876F876A
:1041E000788B84608D8B8091380685FF06C086EBC6
:1041F00096E00E945D028111B8C7B80186EB96E097
:104200000E94C01A8091E60581110BC00E94A90688
:10421000892B39F080E28093E6050E94F9090E941B
:1042200015038CE0E6EBF6E0A0E6B6E001900D9217
:104230008A95E1F780E051CB20E030E0A901609160
:1042400094067091950680919606909197060E942B
:104250004435882309F4EDCCFFA1FC38B9F060F4B3
:10426000F23059F1F33061F1F13009F078CF3B8D44
:10427000311175CF1F8E73CF2FA12E3839F018F062
:104280002F3809F06CCF9BA190619BA38FA18E5812
:10429000823018F4ABA1A860ABA3BB8DBB2309F49B
:1042A000C4CD4CE050E066EB76E080E696E00E94FC
:1042B0001139892B09F053CF6DC04BA144604BA33A
:1042C0008B8D882309F4B1CDB9ADAB2FB0E0BAAB7B
:1042D000A9ABFBADEF2FF0E0FEABEDAB81E090E0E2
:1042E0007C0109AC02C0EE0CFF1C0A94E2F70BAC97
:1042F00002C0880F991F0A94E2F7E82AF92A2B8D49
:10430000822F90E08E219F21892B09F422C7FD0185
:10431000EE0FFF1FEE0FFF1FE857F94FAA0FBB1F4D
:10432000AA0FBB1FA05AB94F2D913D914D915C91A1
:1043300066A577A580A991A90E944E342B013C0166
:10434000EDA9FEA9EE0FFF1FEE0FFF1FE857F94F73
:10435000ADA9BEA9AA0FBB1FAA0FBB1FA05AB94F78
:104360002D913D914D915C9166A577A580A991A96C
:104370000E944E344B015C0127FEFFC0E89427F8F1
:104380004CE050E066EB76E080E696E00E94113962
:10439000892B11F481E2A1CA6091AD067091AE063D
:1043A0008091AF069091B00620918B06213071F478
:1043B00023E333E34BEC51E40E94A6376093AD0650
:1043C0007093AE068093AF069093B0068091AD06D1
:1043D0009091AE06A091AF06B091B00621968CAF39
:1043E0009DAFAEAFBFAF2197A3019201C301B20150
:1043F0000E94A63729966CAF7DAF8EAF9FAF2997ED
:10440000A5019401C501B4010E94A6372D966CAF99
:104410007DAF8EAF9FAF2D9720E030E040E850E4B5
:1044200021966CAD7DAD8EAD9FAD21970E94A637D4
:1044300021962CAD3DAD4EAD5FAD21970E94A637C4
:1044400029962CAD3DAD4EAD5FAD29970E944E34FF
:104450002D962CAD3DAD4EAD5FAD2D970E944E34E7
:104460006B017C0120E030E0A9010E94443587FD0A
:1044700073C6C701B6010E9445386B017C012D96B9
:104480002CAD3DAD4EAD5FAD2D9729966CAD7DAD9C
:104490008EAD9FAD29970E944F340E9445389B01F5
:1044A000AC01C701B60190580E944E356B017C01EA
:1044B0009FA1933021F4F7FAF094F7F8F09420E0FC
:1044C00030E0A90121966CAD7DAD8EAD9FAD2197F9
:1044D0000E94443587FF13C0F7FAF094F7F8F09480
:1044E00021968CAD9DADAEADBFAD2197B0588093F8
:1044F000AD069093AE06A093AF06B093B00609A99F
:104500001AA9000F111F000F111F0856194FA701FC
:104510009601C501B4010E94A6379B01AC01C301FD
:10452000B2010E944E3420E030E040E05FE30E94A0
:10453000A637D8016D937D938D939C9313970DA906
:104540001EA9000F111F000F111F0856194FA701B8
:104550009601C301B2010E94A637A50194010E94F1
:104560004F3420E030E040E05FE30E94A637F801DE
:104570006083718382839383F2CDC12ED12CE1229B
:10458000FD2083E2EF2809F4A8C9F1EF2F228091E2
:104590008B06813041F508E816E0F12CE12CC601CC
:1045A0000E2C02C0959587950A94E2F780FF12C001
:1045B00023E333E34BEC51E4D80150966D917D91A8
:1045C0008D919C9153970E94A637F801608B718B57
:1045D000828B938BFFEFEF1AFF0A0C5F1F4F23E0D4
:1045E000E216F104E1F6E9A9FAA9EE0FFF1FEE0FBA
:1045F000FF1FE856F94FC080D180E280F380A70109
:104600009601C301B2010E944E342B013C01EDA979
:10461000FEA9EE0FFF1FEE0FFF1FE856F94F808136
:104620009181A281B38189AB9AABABABBCAB9C014E
:10463000AD01C501B4010E944E344B015C01A301E0
:104640009201C301B2010E94A6372B013C01A501D2
:104650009401C501B4010E94A6379B01AC01C301BE
:10466000B2010E944F340E9445384B015C01A70102
:104670009601C701B6010E94A6376B017C0129A9EA
:104680003AA94BA95CA9CA01B9010E94A6379B01AE
:10469000AC01C701B6010E944F340E9445386B013E
:1046A0007C01C092AD06D092AE06E092AF06F092C9
:1046B000B006AC019B01C501B4010E944E344B0110
:1046C0005C01E894B7F82AE037ED43EA5BE3C50103
:1046D000B4010E94663718160CF041CD20E030E09E
:1046E00040E05FE3C501B4010E94663718160CF480
:1046F00051CE2FE632E143E85AE3C701B6010E94EA
:10470000A6379B01AC01C501B4010E94663718169B
:104710000CF025CD3FCE8E7D9C7F28CD8091380634
:10472000F090510681FF12C08FA18150833018F0A4
:10473000BBA1B064BBA3EB8DEE2309F431C1FF8DA7
:10474000F23009F02DC12BA120682BA38091A50682
:104750009091A606A091A706B091A80680935C064A
:1047600090935D06A0935E06B0935F0680918A06E3
:1047700080934906882311F088E08D8B8091940600
:1047800090919506A0919606B09197068093570652
:1047900090935806A0935906B0935A068D879E872A
:1047A000AF87B88B2091B1063091B2064091B30625
:1047B0005091B4066091530670915406809155064D
:1047C000909156060E944435811103C09BA195FF2C
:1047D00015C0FF2019F08F2D0E947A178091B10625
:1047E0009091B206A091B306B091B406809353069F
:1047F00090935406A0935506B0935606ABA1A6FD20
:104800000CC08091530690915406A0915506B0912A
:104810005606898B9A8BAB8BBC8B8091B5068093A7
:104820005B068091920690915106981731F00E9494
:104830007A1780919206809351068D899091510646
:10484000892B8D8BF0909106809150068F1569F021
:104850008091E605823029F00E9443178F2D0E9437
:10486000700980919106809350068D899091500631
:10487000892B8D8B80918806843099F48091E60590
:10488000823079F0C090A906D090AA06E090AB06DD
:10489000F090AC060E94431740E0C701B6010E94A9
:1048A0002C1680918D0680934C0680918B06809308
:1048B0004A06BF8DB33071F580918E0680934D0608
:1048C000811108C01092BE061092BF061092C00659
:1048D0001092C106C090BE06D090BF06E090C00600
:1048E000F090C106A701960160918406709185063B
:1048F00080918606909187060E944435882351F066
:10490000C0928406D0928506E0928606F0928706D1
:104910000E94751780918F0690914E06981769F046
:1049200080934E068CE0FE013196ACE6B6E0019035
:104930000D928A95E1F70E94751780918C068093FD
:104940004B0680918806863209F47EC008F03FC08D
:104950008C3109F45FC08E3109F45CC08A3009F4EF
:1049600043C08091890680934806803509F447C387
:10497000BF8DB23009F043C3813009F079C0BE0168
:10498000635F7F4F86EB96E00E94C01A8CE0E6EBF7
:10499000F6E0A0E6B6E001900D928A95E1F72FC30C
:1049A00030E1F312D3CE9BA19074809148068150E0
:1049B000833038F4992309F4C9CE4BA140624BA34C
:1049C000C5CE9111C3CE8BA180628BA3BFCE8C3597
:1049D00009F440C0863609F443C0883209F0C1CFDB
:1049E00060E676E087E033C068E976E089A50E945A
:1049F000881780914E06E9A5E813B3CF8CE0E8E96B
:104A0000F6E0ACE6B6E001900D928A95E1F70E94DF
:104A10007517A7CF8D8981608D8BFF8DFF2329F0BE
:104A2000B80186EB96E00E94C01AB80188E996E0CA
:104A30000E94C01A8CE0E8E9F6E0A0E6B6E001903A
:104A40000D928A95E1F78DCF60E676E086E00E94D0
:104A5000881787CF8CE0E6EBF6E0A8E7B6E0D3CF87
:104A6000E8E7F6E08CE0DF011D928A95E9F7CFCF09
:104A7000811105C08D8981608D8BB80183CF8250F3
:104A8000823008F097C28091AD069091AE06A09159
:104A9000AF06B091B0068F8F98A3A9A3BAA3A9AD12
:104AA00094E0A99F70011124F701E05AF94FF8A78B
:104AB000EFA397012856394F3AA729A7D9014D905E
:104AC0005D906D907C902081318142815381C30142
:104AD000B2010E944F346DA77EA78FA798ABEBADB4
:104AE000B4E0EB9F800111249801205A394F3AAF6E
:104AF00029AFC8018856994F9CAF8BAFDC018D90D0
:104B00009D90AD90BC90F90120813181428153810B
:104B1000C501B4010E944F3469AB7AAB8BAB9CAB3F
:104B200077FA709477F87094D501C401B0588B8FE0
:104B30009C8FAD8FBE8FF701EA54F94F2DA53EA58E
:104B40004FA558A960817181828193810E944E3462
:104B50006B017C01F801EA54F94F29A93AA94BA944
:104B60005CA960817181828193810E944E344B01E6
:104B70005C01A7019601C301B2010E94A6376DAB8B
:104B80007EAB8FAB98AFA50194016B8D7C8D8D8D25
:104B90009E8D0E94A6379B01AC016DA97EA98FA9AD
:104BA00098AD0E944F346DAB7EAB8FAB98AFA50133
:104BB0009401C301B2010E94A6374B015C01A70119
:104BC00096016B8D7C8D8D8D9E8D0E94A6379B01ED
:104BD000AC01C501B4010E944E342DA93EA94FA9D4
:104BE00058AD0E94CE346B017C019BA192FF68C13D
:104BF0002DEB37E346E055EBC701B6010E9466375F
:104C000087FD0AC02BED3FE049EC50E4C701B60137
:104C10000E944E346B017C0180902C0690902D06F2
:104C2000A0902E06B0902F062F8D38A149A15AA131
:104C3000CA01B9010E944F34A50194010E944E346B
:104C4000A50194010E94A6370E9445384B015C01E2
:104C500020E030E040E05FE3C701B6010E94A637E4
:104C60002F8D38A149A15AA10E94A6379F77A5018F
:104C700094010E944E350E9433360E94C7357EABA8
:104C80006DABDB01AB2B09F47ACE1D8990E080E09F
:104C90000E94F6354B015C0113FF0EC0AC019B0175
:104CA0006D857E858F8598890E94A6376D877E8762
:104CB0008F87988B177F1D8BA5019401C701B601C3
:104CC0000E944E356BA37CA38DA39EA32296EFADCD
:104CD0002297B4E0EB9FC00111248C01005A194FB8
:104CE0008A54994FD8012D913D914D915C91FC01D1
:104CF00060817181828193810E944E34A50194016B
:104D00000E944E3529966CAF7DAF8EAF9FAF29972D
:104D10002BA13CA14DA15EA1CA01B9010E94A637F9
:104D20009B01AC0160E070E080E090E40E944E34B2
:104D30006B017C012BEA3AEA4AE25EE36BA17CA1BB
:104D40008DA19EA10E94A6374B015C0120E030E0BE
:104D500040E850E4C701B6010E944F349B01AC010A
:104D6000C501B4010E94A63721966CAF7DAF8EAF0E
:104D70009FAF219720E030E040E05FE3C701B6013C
:104D80000E94A63725966CAF7DAF8EAF9FAF25975B
:104D90001F8E22242394312CEDA9FEA9E215F305E0
:104DA00009F4EDCDFF8DFC3008F09EC0A301920107
:104DB00021966CAD7DAD8EAD9FAD21970E94A6373B
:104DC0006B017C012B8D3C8D4D8D5E8D25966CADE0
:104DD0007DAD8EAD9FAD25970E94A6379B01AC019E
:104DE000C701B6010E944F347B016C01A3019201FF
:104DF00025966CAD7DAD8EAD9FAD25970E94A637F3
:104E00004B015C012B8D3C8D4D8D5E8D21966CADE3
:104E10007DAD8EAD9FAD21970E94A6379B01AC0161
:104E2000C501B4010E944E342B013C012F8D2F5F30
:104E30002F8F470156018B8E9C8EAD8EBE8EA301A7
:104E400092016DA57EA58FA598A90E944F34EFA170
:104E5000F8A560837183828393832B8D3C8D4D8D68
:104E60005E8D69A97AA98BA99CA90E944F34A9AD2E
:104E7000BAAD6D937D938D939C93139729962CAD2A
:104E80003DAD4EAD5FAD2997F801608171818281A2
:104E900093810E944F34D8016D937D938D939C93A1
:104EA0001397BE01635F7F4F80E696E00E94C01AB1
:104EB0008091E70581116ACDBFEF2B1A3B0A6CCFB9
:104EC0002DEB37E346E055E3C701B6010E944435B8
:104ED00018160CF4A1CE2BED3FE049EC50E4C701CD
:104EE000B6010E944F3496CEB10190E080E00E945E
:104EF000F6352BA13CA14DA15EA10E94A6376B0106
:104F00007C010E9449356B8F7C8F8D8F9E8FC701EE
:104F1000B6010E9437384B015C01A9A5BAA5CD9016
:104F2000DD90ED90FC90F7FAF094F7F8F094ABADCB
:104F3000BCAD8D919D910D90BC91A02D8F8F98A3AC
:104F4000A9A3BAA3A70196016B8D7C8D8D8D9E8D33
:104F50000E94A6372B013C012F8D38A149A15AA1EF
:104F6000C501B4010E94A6379B01AC01C301B20187
:104F70000E944F342B013C01A7019601C501B401E9
:104F80000E94A6376B017C012F8D38A149A15AA13F
:104F90006B8D7C8D8D8D9E8D0E94A6379B01AC0103
:104FA000C701B6010E944E346B8F7C8F8D8F9E8F10
:104FB0001F8E45CF8D8984608D8B8091E605823070
:104FC00009F4E4CC0E9443178091E705811117C0D2
:104FD000FBA1F071FF2E1092EB052BA123FB88277C
:104FE00080F90E946C038091CC05882319F184E03C
:104FF0000E9444020E945A1680E00E946C03809135
:10500000900680934F06882311F40C946D1C0E9427
:10501000431780914F069091E605833009F04DC00B
:10502000923029F088E00E9454020E945A16109291
:105030004F0600C9B80186EB96E00E94C01A81E0D5
:105040008093E50582E00E9454020E945A168091E6
:10505000E7058111D4CF8091E6058111F6CF8091CB
:10506000E505813031F5FF2001F18CE0EDECF5E054
:10507000A9EDB5E001900D928A95E1F71092E50552
:1050800080E00E946C030E945A160E94C4110E9484
:105090007C090E9414060E94EA058091EB05882392
:1050A00009F474CC0E94B808AACF85E00E9444029B
:1050B000E5CF81E08093EB05E1CF81E08093480666
:1050C00010924C0610924B061092490610924E0612
:1050D000109251061092500684E68093ED0580935D
:1050E000EE058093EF05923089F06CE676E080E083
:1050F0000E949C17882311F40C94101F0E947517AE
:1051000080E00E942E0380E00E94700986EC92E00D
:105110000E9482048DE592E00E9482040E94E505CF
:1051200086CF81E00C946D1C82E00C946D1C88E1AC
:105130000C946D1C86E20C946D1C89E10C946D1C22
:1051400084E00C946D1C8BE10C946D1C85E20C9436
:105150006D1C80E20C946D1C82E20C946D1C84E248
:105160000C946D1C80E10C946D1C8FE00C946D1CF4
:10517000CF93DF93C0E08C2F0E945417811114C08D
:105180001092C2068EE30E9443030E945F038AE3EB
:105190000E94430387E00E949404C13019F4DF9118
:1051A000CF910895C1E0E7CF8091C2068823A9F38B
:1051B0000E941C1BD82F8EE30E9443030E945F03B2
:1051C0008AE30E9443038D2F0E94A004E6CF2F9212
:1051D0003F924F925F926F927F928F929F92AF9287
:1051E000BF92CF92DF92EF92FF920F931F93CF93D4
:1051F000DF93CDB7DEB7A2970FB6F894DEBF0FBE30
:10520000CDBF9091E705911115C1782E9E01235FC6
:105210003F4F3A8F298F89E0D9011D928A95E9F78E
:1052200086E08D8BE3EFF5E0FC8FEB8F7F01275F4E
:105230003F4F690110E000E0812C912C5401872D33
:1052400090E09E8F8D8F802F94E0002321F090E1DD
:10525000013009F498E0D6019D936D01ED8DFE8D2E
:1052600002C0F595E7958A95E2F7E0FF1BC020E0C4
:1052700030E040EC5FEBD70194966D917D918D917C
:105280009C9197970E94A637362E472E582E692E4E
:10529000A50194010E94443587FD04C0832C942C01
:1052A000A52CB62C0F5F1F4FB4E0EB0EF11C0330A2
:1052B000110549F620903E0630903F06409040068A
:1052C0005090410684E0682E01E06DEC75E0CE015F
:1052D00001960E94980280913906E82FF0E0FAA327
:1052E000E9A3FE0131962DEC35E038A32F8F69013B
:1052F000F12C10E090E080E0B501A40170582D8DF4
:105300003E8D082E02C0359527950A94E2F720FFBE
:1053100026C0F394D6011D921D921D921C921397E4
:1053200029A13AA1082E02C0359527950A94E2F7E3
:1053300020FF07C0002339F04083518362837383C9
:1053400006C00023C9F380829182A282B382A6E1C3
:10535000B0E0AC0FBD1FA80FB91F2C91122B019606
:105360003496B4E0CB0ED11C8330910541F66F2DFD
:1053700070E090E080E00E94F6350E94453810937E
:10538000EC05A20191010E94A6376D877E878F8769
:10539000988BBE01635F7F4FCE0101960E941A1861
:1053A000E4E0E093EA050E94F9090E941503002356
:1053B000E9F00E948208FE01769630E020E090E05D
:1053C0006191462F412359F0AC01022E02C0559540
:1053D00047950A94E2F740FF02C0609516232F5FBD
:1053E0003F4F2330310561F71093EC050E94F90916
:1053F0008091C805847309F4B3C01091C80514FFE7
:1054000003C086E00E94440215FF03C087E00E94AB
:1054100044020111C1C00E948208872119F088E06E
:105420000E9444028091C9058823E9F00E94F91185
:105430000E945A16A2960FB6F894DEBF0FBECDBFDB
:10544000DF91CF911F910F91FF90EF90DF90CF9060
:10545000BF90AF909F908F907F906F905F904F9094
:105460003F902F90089584E00E944A020E94C41148
:105470008091420690914306019708F076C0E1E0E2
:105480000E27C0904406D0904506E0904606F09066
:105490004706002309F470C020E030E040EA50E401
:1054A000C701B6010E94A6374B015C0120903A0665
:1054B00030903B0640903C0650903D066A94611047
:1054C00004CF20903906312C2601370177FA7094E9
:1054D00077F8709410E000E08D8D9E8D002E02C054
:1054E000959587950A94E2F780FF26C0AB8DBC8D19
:1054F0008D909D90AD90BC901397C101002E02C07D
:10550000959587950A94E2F780FF41C094962D9176
:105510003D914D915C919797C701B6010E944F3420
:10552000A50194010E94A6370E947337EF8DF8A160
:1055300060837183828393830F5F1F4F2F8D38A108
:105540002C5F3F4F38A32F8F8B8D9C8D04969C8FA3
:105550008B8F0330110509F0BFCF1092EA056ACF97
:10556000812F8C7109F023CF81CFAFE9BFE0119774
:10557000F1F700C0000080CF20903E0630903F063B
:1055800040904006509041064601570197CFA50133
:105590009401C301B201C6CF12FF44CF89E040CFCE
:1055A0001F920F920FB60F9211240F900FBE0F9003
:1055B0001F9018951F920F920FB60F9211248F9380
:1055C0009F93EF93FF93E6E1F2E08081837E9091D9
:1055D00015029C71892B808315BCFF91EF919F91DF
:1055E0008F910F900FBE0F901F9018951F920F92E2
:1055F0000FB60F9211242F933F934F935F936F93A6
:105600007F938F939F93AF93BF93EF93FF9380917B
:105610001802811192C2809114028F719091280218
:10562000907E892B8093140280911602837E909144
:105630002702892B809316028091260286BD82E084
:1056400085BD81E080931802789480913A02909110
:105650003B02892B09F0A1C080911F05909145055F
:10566000981709F465C2E0911F052E2F30E086E0FF
:10567000E89FF0011124EF5DFA4FF0933B02E093B5
:105680003A0282819381909389008093880080817F
:1056900091819093360280933502E48180913702A4
:1056A0008E1761F1E093370281E1E89FF001112448
:1056B000EA5BFA4FF0933902E093380284859585CE
:1056C000A685B785B695A79597958795809321026E
:1056D00090932202A0932302B093240280931D0290
:1056E00090931E02A0931F02B09320028093190290
:1056F00090931A02A0931B02B0931C02E09138020F
:10570000F0913902808990911702892780932802AD
:1057100086E0829FD001839FB00D1124AF5DBA4F08
:1057200015962C9180819181A281B381022E04C0B3
:10573000B695A795979587950A94D2F780932902F5
:1057400090932A02A0932B02B0932C02848195811E
:10575000A681B781022E04C0B695A7959795879527
:105760000A94D2F780932D0290932E02A0932F02D9
:10577000B093300280859185A285B38504C0B6952B
:10578000A795979587952A95D2F7809331029093A4
:105790003202A0933302B09334028091E505813048
:1057A000A1F48091CC05882381F01092E5058CE06E
:1057B000EDECF5E0A9EDB5E001900D928A95E1F7E9
:1057C0008091C80580648093C8051092270280915B
:1057D000190290911A02A0911B02B0911C024091F3
:1057E000290250912A0260912B0270912C02840FA1
:1057F000951FA61FB71F8093190290931A02A093BA
:105800001B02B0931C02E0913802F09139024485EA
:10581000558566857785481759076A077B0708F01D
:1058200073C024E020932702841B950BA60BB70BB3
:105830008093190290931A02A0931B02B0931C024A
:105840008091CD059091CE05A091CF05B091D00566
:105850002091020130910301408945FF86C10197E3
:10586000A109B1098093CD059093CE05A093CF05F2
:10587000B093D00521503109121613060CF06EC1F9
:105880003093030120930201809102019091030162
:10589000019711F480E28BB980910201909103018C
:1058A000029711F480E38BB980910201909103017A
:1058B000039711F480E18BB980910201909103016B
:1058C000049711F488E18BB9809102019091030152
:1058D000059711F488E08BB9809102019091030142
:1058E000069711F48CE08BB980910201909103012D
:1058F000079711F484E08BB9809102019091030124
:10590000089711F484E28BB980911D0290911E02D8
:10591000A0911F02B091200240912D0250912E02C1
:1059200060912F0270913002840F951FA61FB71F40
:1059300080931D0290931E02A0931F02B093200239
:105940004485558566857785481759076A077B071B
:1059500008F075C020912702286020932702841B3D
:10596000950BA60BB70B80931D0290931E02A0937C
:105970001F02B09320028091D1059091D205A09191
:10598000D305B091D40520910001309101014089E7
:1059900046FF06C10197A109B1098093D1059093F3
:1059A000D205A093D305B093D4052F5F3F4F293084
:1059B00031050CF0EEC0309301012093000180917D
:1059C000000190910101019711F488E088B980915C
:1059D000000190910101029711F48CE088B9809147
:1059E000000190910101039711F484E088B980913E
:1059F000000190910101049711F486E088B980912B
:105A0000000190910101059711F482E088B980911D
:105A1000000190910101069711F483E088B980910B
:105A2000000190910101079711F481E088B98091FC
:105A3000000190910101089711F489E088B98091E3
:105A4000210290912202A0912302B0912402409160
:105A50003102509132026091330270913402840F0E
:105A6000951FA61FB71F8093210290932202A09337
:105A70002302B093240244855585668577854817AF
:105A800059076A077B0738F5209127022061209388
:105A90002702841B950BA60BB70B809321029093D2
:105AA0002202A0932302B09324028091D505909105
:105AB000D605A091D705B091D805208927FF84C0CD
:105AC0000197A109B1098093D5059093D605A093BC
:105AD000D705B093D8058091E605843039F48091DC
